{"abi":[{"type":"constructor","inputs":[{"name":"eip712Name","type":"string","internalType":"string"},{"name":"eip712Version","type":"string","internalType":"string"},{"name":"controller","type":"address","internalType":"address"},{"name":"revokeSignerThawingPeriod","type":"uint256","internalType":"uint256"}],"stateMutability":"nonpayable"},{"type":"function","name":"REVOKE_AUTHORIZATION_THAWING_PERIOD","inputs":[],"outputs":[{"name":"","type":"uint256","internalType":"uint256"}],"stateMutability":"view"},{"type":"function","name":"authorizations","inputs":[{"name":"signer","type":"address","internalType":"address"}],"outputs":[{"name":"authorizer","type":"address","internalType":"address"},{"name":"thawEndTimestamp","type":"uint256","internalType":"uint256"},{"name":"revoked","type":"bool","internalType":"bool"}],"stateMutability":"view"},{"type":"function","name":"authorizeSigner","inputs":[{"name":"signer","type":"address","internalType":"address"},{"name":"proofDeadline","type":"uint256","internalType":"uint256"},{"name":"proof","type":"bytes","internalType":"bytes"}],"outputs":[],"stateMutability":"nonpayable"},{"type":"function","name":"cancelThawSigner","inputs":[{"name":"signer","type":"address","internalType":"address"}],"outputs":[],"stateMutability":"nonpayable"},{"type":"function","name":"collect","inputs":[{"name":"paymentType","type":"uint8","internalType":"enum IGraphPayments.PaymentTypes"},{"name":"data","type":"bytes","internalType":"bytes"},{"name":"tokensToCollect","type":"uint256","internalType":"uint256"}],"outputs":[{"name":"","type":"uint256","internalType":"uint256"}],"stateMutability":"nonpayable"},{"type":"function","name":"collect","inputs":[{"name":"paymentType","type":"uint8","internalType":"enum IGraphPayments.PaymentTypes"},{"name":"data","type":"bytes","internalType":"bytes"}],"outputs":[{"name":"","type":"uint256","internalType":"uint256"}],"stateMutability":"nonpayable"},{"type":"function","name":"eip712Domain","inputs":[],"outputs":[{"name":"fields","type":"bytes1","internalType":"bytes1"},{"name":"name","type":"string","internalType":"string"},{"name":"version","type":"string","internalType":"string"},{"name":"chainId","type":"uint256","internalType":"uint256"},{"name":"verifyingContract","type":"address","internalType":"address"},{"name":"salt","type":"bytes32","internalType":"bytes32"},{"name":"extensions","type":"uint256[]","internalType":"uint256[]"}],"stateMutability":"view"},{"type":"function","name":"encodeRAV","inputs":[{"name":"rav","type":"tuple","internalType":"struct IGraphTallyCollector.ReceiptAggregateVoucher","components":[{"name":"collectionId","type":"bytes32","internalType":"bytes32"},{"name":"payer","type":"address","internalType":"address"},{"name":"serviceProvider","type":"address","internalType":"address"},{"name":"dataService","type":"address","internalType":"address"},{"name":"timestampNs","type":"uint64","internalType":"uint64"},{"name":"valueAggregate","type":"uint128","internalType":"uint128"},{"name":"metadata","type":"bytes","internalType":"bytes"}]}],"outputs":[{"name":"","type":"bytes32","internalType":"bytes32"}],"stateMutability":"view"},{"type":"function","name":"getThawEnd","inputs":[{"name":"signer","type":"address","internalType":"address"}],"outputs":[{"name":"","type":"uint256","internalType":"uint256"}],"stateMutability":"view"},{"type":"function","name":"isAuthorized","inputs":[{"name":"authorizer","type":"address","internalType":"address"},{"name":"signer","type":"address","internalType":"address"}],"outputs":[{"name":"","type":"bool","internalType":"bool"}],"stateMutability":"view"},{"type":"function","name":"recoverRAVSigner","inputs":[{"name":"signedRAV","type":"tuple","internalType":"struct IGraphTallyCollector.SignedRAV","components":[{"name":"rav","type":"tuple","internalType":"struct IGraphTallyCollector.ReceiptAggregateVoucher","components":[{"name":"collectionId","type":"bytes32","internalType":"bytes32"},{"name":"payer","type":"address","internalType":"address"},{"name":"serviceProvider","type":"address","internalType":"address"},{"name":"dataService","type":"address","internalType":"address"},{"name":"timestampNs","type":"uint64","internalType":"uint64"},{"name":"valueAggregate","type":"uint128","internalType":"uint128"},{"name":"metadata","type":"bytes","internalType":"bytes"}]},{"name":"signature","type":"bytes","internalType":"bytes"}]}],"outputs":[{"name":"","type":"address","internalType":"address"}],"stateMutability":"view"},{"type":"function","name":"revokeAuthorizedSigner","inputs":[{"name":"signer","type":"address","internalType":"address"}],"outputs":[],"stateMutability":"nonpayable"},{"type":"function","name":"thawSigner","inputs":[{"name":"signer","type":"address","internalType":"address"}],"outputs":[],"stateMutability":"nonpayable"},{"type":"function","name":"tokensCollected","inputs":[{"name":"dataService","type":"address","internalType":"address"},{"name":"collectionId","type":"bytes32","internalType":"bytes32"},{"name":"receiver","type":"address","internalType":"address"},{"name":"payer","type":"address","internalType":"address"}],"outputs":[{"name":"tokens","type":"uint256","internalType":"uint256"}],"stateMutability":"view"},{"type":"event","name":"EIP712DomainChanged","inputs":[],"anonymous":false},{"type":"event","name":"GraphDirectoryInitialized","inputs":[{"name":"graphToken","type":"address","indexed":true,"internalType":"address"},{"name":"graphStaking","type":"address","indexed":true,"internalType":"address"},{"name":"graphPayments","type":"address","indexed":false,"internalType":"address"},{"name":"graphEscrow","type":"address","indexed":false,"internalType":"address"},{"name":"graphController","type":"address","indexed":true,"internalType":"address"},{"name":"graphEpochManager","type":"address","indexed":false,"internalType":"address"},{"name":"graphRewardsManager","type":"address","indexed":false,"internalType":"address"},{"name":"graphTokenGateway","type":"address","indexed":false,"internalType":"address"},{"name":"graphProxyAdmin","type":"address","indexed":false,"internalType":"address"},{"name":"graphCuration","type":"address","indexed":false,"internalType":"address"}],"anonymous":false},{"type":"event","name":"PaymentCollected","inputs":[{"name":"paymentType","type":"uint8","indexed":false,"internalType":"enum IGraphPayments.PaymentTypes"},{"name":"collectionId","type":"bytes32","indexed":true,"internalType":"bytes32"},{"name":"payer","type":"address","indexed":true,"internalType":"address"},{"name":"receiver","type":"address","indexed":false,"internalType":"address"},{"name":"dataService","type":"address","indexed":true,"internalType":"address"},{"name":"tokens","type":"uint256","indexed":false,"internalType":"uint256"}],"anonymous":false},{"type":"event","name":"RAVCollected","inputs":[{"name":"collectionId","type":"bytes32","indexed":true,"internalType":"bytes32"},{"name":"payer","type":"address","indexed":true,"internalType":"address"},{"name":"serviceProvider","type":"address","indexed":false,"internalType":"address"},{"name":"dataService","type":"address","indexed":true,"internalType":"address"},{"name":"timestampNs","type":"uint64","indexed":false,"internalType":"uint64"},{"name":"valueAggregate","type":"uint128","indexed":false,"internalType":"uint128"},{"name":"metadata","type":"bytes","indexed":false,"internalType":"bytes"},{"name":"signature","type":"bytes","indexed":false,"internalType":"bytes"}],"anonymous":false},{"type":"event","name":"SignerAuthorized","inputs":[{"name":"authorizer","type":"address","indexed":true,"internalType":"address"},{"name":"signer","type":"address","indexed":true,"internalType":"address"}],"anonymous":false},{"type":"event","name":"SignerRevoked","inputs":[{"name":"authorizer","type":"address","indexed":true,"internalType":"address"},{"name":"signer","type":"address","indexed":true,"internalType":"address"}],"anonymous":false},{"type":"event","name":"SignerThawCanceled","inputs":[{"name":"authorizer","type":"address","indexed":true,"internalType":"address"},{"name":"signer","type":"address","indexed":true,"internalType":"address"},{"name":"thawEndTimestamp","type":"uint256","indexed":false,"internalType":"uint256"}],"anonymous":false},{"type":"event","name":"SignerThawing","inputs":[{"name":"authorizer","type":"address","indexed":true,"internalType":"address"},{"name":"signer","type":"address","indexed":true,"internalType":"address"},{"name":"thawEndTimestamp","type":"uint256","indexed":false,"internalType":"uint256"}],"anonymous":false},{"type":"error","name":"AuthorizableInvalidSignerProof","inputs":[]},{"type":"error","name":"AuthorizableInvalidSignerProofDeadline","inputs":[{"name":"proofDeadline","type":"uint256","internalType":"uint256"},{"name":"currentTimestamp","type":"uint256","internalType":"uint256"}]},{"type":"error","name":"AuthorizableSignerAlreadyAuthorized","inputs":[{"name":"authorizer","type":"address","internalType":"address"},{"name":"signer","type":"address","internalType":"address"},{"name":"revoked","type":"bool","internalType":"bool"}]},{"type":"error","name":"AuthorizableSignerNotAuthorized","inputs":[{"name":"authorizer","type":"address","internalType":"address"},{"name":"signer","type":"address","internalType":"address"}]},{"type":"error","name":"AuthorizableSignerNotThawing","inputs":[{"name":"signer","type":"address","internalType":"address"}]},{"type":"error","name":"AuthorizableSignerStillThawing","inputs":[{"name":"currentTimestamp","type":"uint256","internalType":"uint256"},{"name":"thawEndTimestamp","type":"uint256","internalType":"uint256"}]},{"type":"error","name":"ECDSAInvalidSignature","inputs":[]},{"type":"error","name":"ECDSAInvalidSignatureLength","inputs":[{"name":"length","type":"uint256","internalType":"uint256"}]},{"type":"error","name":"ECDSAInvalidSignatureS","inputs":[{"name":"s","type":"bytes32","internalType":"bytes32"}]},{"type":"error","name":"GraphDirectoryInvalidZeroAddress","inputs":[{"name":"contractName","type":"bytes","internalType":"bytes"}]},{"type":"error","name":"GraphTallyCollectorCallerNotDataService","inputs":[{"name":"caller","type":"address","internalType":"address"},{"name":"dataService","type":"address","internalType":"address"}]},{"type":"error","name":"GraphTallyCollectorInconsistentRAVTokens","inputs":[{"name":"tokens","type":"uint256","internalType":"uint256"},{"name":"tokensCollected","type":"uint256","internalType":"uint256"}]},{"type":"error","name":"GraphTallyCollectorInvalidRAVSigner","inputs":[]},{"type":"error","name":"GraphTallyCollectorInvalidTokensToCollectAmount","inputs":[{"name":"tokensToCollect","type":"uint256","internalType":"uint256"},{"name":"maxTokensToCollect","type":"uint256","internalType":"uint256"}]},{"type":"error","name":"GraphTallyCollectorUnauthorizedDataService","inputs":[{"name":"dataService","type":"address","internalType":"address"}]},{"type":"error","name":"InvalidShortString","inputs":[]},{"type":"error","name":"StringTooLong","inputs":[{"name":"str","type":"string","internalType":"string"}]}],"bytecode":{"object":"0x6102c0604052348015610010575f5ffd5b5060405161223538038061223583398101604081905261002f916105b1565b8082858561003d825f6103df565b6101205261004c8160016103df565b61014052815160208084019190912060e052815190820120610100524660a0526100d860e05161010051604080517f8b73c3c69bb8fe3d512ecc4cf759cc79239f7b179b0ffacaa9a75d522b39400f60208201529081019290925260608201524660808201523060a08201525f9060c00160405160208183030381529060405280519060200120905090565b60805250503060c0526001600160a01b03811661012a5760405163218f5add60e11b815260206004820152600a60248201526921b7b73a3937b63632b960b11b60448201526064015b60405180910390fd5b6001600160a01b0381166101e05260408051808201909152600a81526923b930b8342a37b5b2b760b11b602082015261016290610411565b6001600160a01b0316610160526040805180820190915260078152665374616b696e6760c81b602082015261019690610411565b6001600160a01b03166101805260408051808201909152600d81526c47726170685061796d656e747360981b60208201526101d090610411565b6001600160a01b03166101a05260408051808201909152600e81526d5061796d656e7473457363726f7760901b602082015261020b90610411565b6001600160a01b03166101c05260408051808201909152600c81526b22b837b1b426b0b730b3b2b960a11b602082015261024490610411565b6001600160a01b03166102005260408051808201909152600e81526d2932bbb0b93239a6b0b730b3b2b960911b602082015261027f90610411565b6001600160a01b0316610220526040805180820190915260118152704772617068546f6b656e4761746577617960781b60208201526102bd90610411565b6001600160a01b03166102405260408051808201909152600f81526e23b930b834283937bc3ca0b236b4b760891b60208201526102f990610411565b6001600160a01b03166102605260408051808201909152600881526721bab930ba34b7b760c11b602082015261032e90610411565b6001600160a01b039081166102808190526101e05161018051610160516101a0516101c0516102005161022051610240516102605160408051968c168752948b166020870152928a1685850152908916606085015288166080840152871660a083015260c0820195909552935192851694918216939116917fef5021414834d86e36470f5c1cecf6544fb2bb723f2ca51a4c86fcd8c5919a439181900360e00190a4506102a052506107ee92505050565b5f6020835110156103fa576103f3836104bc565b905061040b565b8161040584826106b1565b5060ff90505b92915050565b5f5f6101e0516001600160a01b031663f7641a5e84805190602001206040518263ffffffff1660e01b815260040161044b91815260200190565b602060405180830381865afa158015610466573d5f5f3e3d5ffd5b505050506040513d601f19601f8201168201806040525081019061048a919061076b565b9050826001600160a01b0382166104b55760405163218f5add60e11b815260040161012191906107b9565b5092915050565b5f5f829050601f815111156104e6578260405163305a27a960e01b815260040161012191906107b9565b80516104f1826107cb565b179392505050565b634e487b7160e01b5f52604160045260245ffd5b5f82601f83011261051c575f5ffd5b81516001600160401b03811115610535576105356104f9565b604051601f8201601f19908116603f011681016001600160401b0381118282101715610563576105636104f9565b60405281815283820160200185101561057a575f5ffd5b8160208501602083015e5f918101602001919091529392505050565b80516001600160a01b03811681146105ac575f5ffd5b919050565b5f5f5f5f608085870312156105c4575f5ffd5b84516001600160401b038111156105d9575f5ffd5b6105e58782880161050d565b602087015190955090506001600160401b03811115610602575f5ffd5b61060e8782880161050d565b93505061061d60408601610596565b6060959095015193969295505050565b600181811c9082168061064157607f821691505b60208210810361065f57634e487b7160e01b5f52602260045260245ffd5b50919050565b601f8211156106ac57805f5260205f20601f840160051c8101602085101561068a5750805b601f840160051c820191505b818110156106a9575f8155600101610696565b50505b505050565b81516001600160401b038111156106ca576106ca6104f9565b6106de816106d8845461062d565b84610665565b6020601f821160018114610710575f83156106f95750848201515b5f19600385901b1c1916600184901b1784556106a9565b5f84815260208120601f198516915b8281101561073f578785015182556020948501946001909201910161071f565b508482101561075c57868401515f19600387901b60f8161c191681555b50505050600190811b01905550565b5f6020828403121561077b575f5ffd5b61078482610596565b9392505050565b5f81518084528060208401602086015e5f602082860101526020601f19601f83011685010191505092915050565b602081525f610784602083018461078b565b8051602080830151919081101561065f575f1960209190910360031b1b16919050565b60805160a05160c05160e05161010051610120516101405161016051610180516101a0516101c0516101e05161020051610220516102405161026051610280516102a05161199961089c5f395f818161027a015261039c01525f50505f50505f50505f50505f50505f50505f610a7b01525f50505f61087401525f50505f610c0e01525f610bdd01525f610f8301525f610f5b01525f610eb601525f610ee001525f610f0a01526119995ff3fe608060405234801561000f575f5ffd5b50600436106100e5575f3560e01c806365e4ad9e1161008857806384b0196e1161006357806384b0196e1461025a5780639b95288114610275578063bea5d2ab1461029c578063fee9f01f146102c7575f5ffd5b806365e4ad9e14610211578063692209ce146102345780637f07d28314610247575f5ffd5b806326969c4c116100c357806326969c4c1461015d57806339aa7416146101705780633a13e1af1461018357806363648817146101e6575f5ffd5b8063015cdd80146100e95780631354f019146100fe578063181250ff14610111575b5f5ffd5b6100fc6100f7366004611228565b6102da565b005b6100fc61010c366004611228565b61038c565b61014a61011f366004611243565b600360209081525f948552604080862082529385528385208152918452828420909152825290205481565b6040519081526020015b60405180910390f35b61014a61016b366004611293565b610420565b6100fc61017e366004611228565b610438565b6101bf610191366004611228565b600260208190525f91825260409091208054600182015491909201546001600160a01b039092169160ff1683565b604080516001600160a01b0390941684526020840192909252151590820152606001610154565b6101f96101f43660046112c9565b61050b565b6040516001600160a01b039091168152602001610154565b61022461021f3660046112ff565b61051d565b6040519015158152602001610154565b61014a610242366004611388565b61052f565b61014a6102553660046113dd565b610545565b61026261055a565b6040516101549796959493929190611459565b61014a7f000000000000000000000000000000000000000000000000000000000000000081565b61014a6102aa366004611228565b6001600160a01b03165f9081526002602052604090206001015490565b6100fc6102d53660046114ef565b61059c565b806102e53382610666565b6001600160a01b0382165f9081526002602052604090206001015482906103305760405163cd3cd55d60e01b81526001600160a01b0390911660048201526024015b60405180910390fd5b506001600160a01b0382165f81815260026020908152604080832060010180549390555182815291929133917f3b4432b11b66b46d9a7b190aa989c0ae85a5395b543540220596dd94dd405ceb910160405180910390a3505050565b806103973382610666565b6103c17f00000000000000000000000000000000000000000000000000000000000000004261155a565b6001600160a01b0383165f818152600260205260409081902060010183905551909133917fd939049941f6a15381248e4ac0010f15efdf0f3221923711244c200b5ff2cddf916104149190815260200190565b60405180910390a35050565b5f61043261042d83611701565b6106aa565b92915050565b806104433382610666565b6001600160a01b0382165f9081526002602052604090206001015482816104895760405163cd3cd55d60e01b81526001600160a01b039091166004820152602401610327565b504281818111156104b65760405163bd76307f60e01b815260048101929092526024820152604401610327565b50506001600160a01b0383165f818152600260208190526040808320909101805460ff191660011790555133917f2fc91dbd92d741cae16e0315578d7f6cf77043b771692c4bd993658ecfe8942291a3505050565b5f61043261051883611799565b61077a565b5f6105288383610798565b9392505050565b5f61053c858585856107f8565b95945050505050565b5f6105528484845f6107f8565b949350505050565b5f6060805f5f5f606061056b610bd6565b610573610c07565b604080515f80825260208201909252600f60f81b9b939a50919850469750309650945092509050565b6001600160a01b038481165f9081526002602081905260409091208054910154911690859060ff1682156105ff57604051630c83a00f60e01b81526001600160a01b03938416600482015292909116602483015215156044820152606401610327565b50505061060e82828587610c34565b6001600160a01b0384165f8181526002602052604080822080546001600160a01b03191633908117909155905190917f6edcdd4150e63c6c36d965976c1c37375609c8b040c50d39e7156437b80e282891a350505050565b6106708282610798565b828290916106a457604051631e58ab1f60e01b81526001600160a01b03928316600482015291166024820152604401610327565b50505050565b5f6104327f2f8962be843489018f0fe44aa06adfead655e3c10d7347a020040f9524f392d3835f015184602001518560400151866060015187608001518860a001518960c001518051906020012060405160200161075f98979695949392919097885260208801969096526001600160a01b0394851660408801529284166060870152921660808501526001600160401b039190911660a08401526001600160801b031660c083015260e08201526101000190565b60405160208183030381529060405280519060200120610d75565b5f5f610788835f01516106aa565b9050610528818460200151610da1565b5f6001600160a01b038316158015906107cc57506001600160a01b038281165f908152600260205260409020548116908416145b80156105285750506001600160a01b03165f908152600260208190526040909120015460ff1615919050565b5f808080610808868801886117a4565b825160600151929550909350915033906001600160a01b038116821461085457604051632b65e49760e11b81526001600160a01b03928316600482015291166024820152604401610327565b505061085f83610dc9565b8251805160608201516040909201519091905f7f000000000000000000000000000000000000000000000000000000000000000087516040808201516060909201519051630119cbed60e31b81526001600160a01b03928316600482015290821660248201529116906308ce5f6890604401602060405180830381865afa1580156108ec573d5f5f3e3d5ffd5b505050506040513d601f19601f8201168201806040525081019061091091906117fa565b875160600151909150816109435760405163037a2d1f60e61b81526001600160a01b039091166004820152602401610327565b5050855160a001516001600160a01b038084165f9081526003602090815260408083208884528252808320868516845282528083208b5183015190941683529290529081205490916001600160801b03169081818082116109c057604051637007d4a160e01b815260048101929092526024820152604401610327565b50508a5f036109da576109d38183611811565b9250610a20565b6109e48183611811565b8b11158b6109f28385611811565b9091610a1a5760405163c5602bb160e01b815260048101929092526024820152604401610327565b50508a92505b50508015610b08576001600160a01b038084165f9081526003602090815260408083208884528252808320868516845282528083208b5183015190941683529290529081208054839290610a7590849061155a565b909155507f000000000000000000000000000000000000000000000000000000000000000090506001600160a01b0316631230fa3e8d895f0151602001518585888c8c6040518863ffffffff1660e01b8152600401610ada9796959493929190611858565b5f604051808303815f87803b158015610af1575f5ffd5b505af1158015610b03573d5f5f3e3d5ffd5b505050505b826001600160a01b0316875f0151602001516001600160a01b0316857f481a17595c709e8f745444fb9ffc8f0b5e98458de94463971947f548e12bbdb48f8686604051610b57939291906118a4565b60405180910390a48651602080820151608083015160a084015160c090940151928b01516040516001600160a01b03808a16969416948a947f3943fc3b19ec289c87b57de7a8bf1448d81ced03d1806144ecaca4ba9e97605694610bbf948b949193916118cc565b60405180910390a49b9a5050505050505050505050565b6060610c027f00000000000000000000000000000000000000000000000000000000000000005f610e01565b905090565b6060610c027f00000000000000000000000000000000000000000000000000000000000000006001610e01565b8142808211610c5f5760405163d7705a0160e01b815260048101929092526024820152604401610327565b505060408051466020808301919091526bffffffffffffffffffffffff1930606090811b8216848601527330baba3437b934bd32a9b4b3b732b9283937b7b360611b60548501526068840187905233901b1660888301528251808303607c018152609c90920190925280519101207f19457468657265756d205369676e6564204d6573736167653a0a3332000000005f908152601c829052603c81209050826001600160a01b0316610d468288888080601f0160208091040260200160405190810160405280939291908181526020018383808284375f92019190915250610da192505050565b6001600160a01b031614610d6d57604051631c07ed3360e31b815260040160405180910390fd5b505050505050565b5f610432610d81610eaa565b8360405161190160f01b8152600281019290925260228201526042902090565b5f5f5f5f610daf8686610fd3565b925092509250610dbf828261101c565b5090949350505050565b805160200151610de190610ddc8361077a565b610798565b610dfe5760405163aa415c3360e01b815260040160405180910390fd5b50565b606060ff8314610e1b57610e14836110d8565b9050610432565b818054610e279061192b565b80601f0160208091040260200160405190810160405280929190818152602001828054610e539061192b565b8015610e9e5780601f10610e7557610100808354040283529160200191610e9e565b820191905f5260205f20905b815481529060010190602001808311610e8157829003601f168201915b50505050509050610432565b5f306001600160a01b037f000000000000000000000000000000000000000000000000000000000000000016148015610f0257507f000000000000000000000000000000000000000000000000000000000000000046145b15610f2c57507f000000000000000000000000000000000000000000000000000000000000000090565b610c02604080517f8b73c3c69bb8fe3d512ecc4cf759cc79239f7b179b0ffacaa9a75d522b39400f60208201527f0000000000000000000000000000000000000000000000000000000000000000918101919091527f000000000000000000000000000000000000000000000000000000000000000060608201524660808201523060a08201525f9060c00160405160208183030381529060405280519060200120905090565b5f5f5f835160410361100a576020840151604085015160608601515f1a610ffc88828585611115565b955095509550505050611015565b505081515f91506002905b9250925092565b5f82600381111561102f5761102f611824565b03611038575050565b600182600381111561104c5761104c611824565b0361106a5760405163f645eedf60e01b815260040160405180910390fd5b600282600381111561107e5761107e611824565b0361109f5760405163fce698f760e01b815260048101829052602401610327565b60038260038111156110b3576110b3611824565b036110d4576040516335e2f38360e21b815260048101829052602401610327565b5050565b60605f6110e4836111dd565b6040805160208082528183019092529192505f91906020820181803683375050509182525060208101929092525090565b5f80807f7fffffffffffffffffffffffffffffff5d576e7357a4501ddfe92f46681b20a084111561114e57505f915060039050826111d3565b604080515f808252602082018084528a905260ff891692820192909252606081018790526080810186905260019060a0016020604051602081039080840390855afa15801561119f573d5f5f3e3d5ffd5b5050604051601f1901519150506001600160a01b0381166111ca57505f9250600191508290506111d3565b92505f91508190505b9450945094915050565b5f60ff8216601f81111561043257604051632cd44ac360e21b815260040160405180910390fd5b6001600160a01b0381168114610dfe575f5ffd5b803561122381611204565b919050565b5f60208284031215611238575f5ffd5b813561052881611204565b5f5f5f5f60808587031215611256575f5ffd5b843561126181611204565b935060208501359250604085013561127881611204565b9150606085013561128881611204565b939692955090935050565b5f602082840312156112a3575f5ffd5b81356001600160401b038111156112b8575f5ffd5b820160e08185031215610528575f5ffd5b5f602082840312156112d9575f5ffd5b81356001600160401b038111156112ee575f5ffd5b820160408185031215610528575f5ffd5b5f5f60408385031215611310575f5ffd5b823561131b81611204565b9150602083013561132b81611204565b809150509250929050565b803560038110611223575f5ffd5b5f5f83601f840112611354575f5ffd5b5081356001600160401b0381111561136a575f5ffd5b602083019150836020828501011115611381575f5ffd5b9250929050565b5f5f5f5f6060858703121561139b575f5ffd5b6113a485611336565b935060208501356001600160401b038111156113be575f5ffd5b6113ca87828801611344565b9598909750949560400135949350505050565b5f5f5f604084860312156113ef575f5ffd5b6113f884611336565b925060208401356001600160401b03811115611412575f5ffd5b61141e86828701611344565b9497909650939450505050565b5f81518084528060208401602086015e5f602082860101526020601f19601f83011685010191505092915050565b60ff60f81b8816815260e060208201525f61147760e083018961142b565b8281036040840152611489818961142b565b606084018890526001600160a01b038716608085015260a0840186905283810360c0850152845180825260208087019350909101905f5b818110156114de5783518352602093840193909201916001016114c0565b50909b9a5050505050505050505050565b5f5f5f5f60608587031215611502575f5ffd5b843561150d81611204565b93506020850135925060408501356001600160401b0381111561152e575f5ffd5b61153a87828801611344565b95989497509550505050565b634e487b7160e01b5f52601160045260245ffd5b8082018082111561043257610432611546565b634e487b7160e01b5f52604160045260245ffd5b60405160e081016001600160401b03811182821017156115a3576115a361156d565b60405290565b80356001600160401b0381168114611223575f5ffd5b80356001600160801b0381168114611223575f5ffd5b5f82601f8301126115e4575f5ffd5b81356001600160401b038111156115fd576115fd61156d565b604051601f8201601f19908116603f011681016001600160401b038111828210171561162b5761162b61156d565b604052818152838201602001851015611642575f5ffd5b816020850160208301375f918101602001919091529392505050565b5f60e0828403121561166e575f5ffd5b611676611581565b82358152905061168860208301611218565b602082015261169960408301611218565b60408201526116aa60608301611218565b60608201526116bb608083016115a9565b60808201526116cc60a083016115bf565b60a082015260c08201356001600160401b038111156116e9575f5ffd5b6116f5848285016115d5565b60c08301525092915050565b5f610432368361165e565b5f6040828403121561171c575f5ffd5b604080519081016001600160401b038111828210171561173e5761173e61156d565b60405290508082356001600160401b03811115611759575f5ffd5b6117658582860161165e565b82525060208301356001600160401b03811115611780575f5ffd5b61178c858286016115d5565b6020830152505092915050565b5f610432368361170c565b5f5f5f606084860312156117b6575f5ffd5b83356001600160401b038111156117cb575f5ffd5b6117d78682870161170c565b9350506020840135915060408401356117ef81611204565b809150509250925092565b5f6020828403121561180a575f5ffd5b5051919050565b8181038181111561043257610432611546565b634e487b7160e01b5f52602160045260245ffd5b6003811061185457634e487b7160e01b5f52602160045260245ffd5b9052565b60e08101611866828a611838565b6001600160a01b03978816602083015295871660408201526060810194909452918516608084015260a083015290921660c090920191909152919050565b606081016118b28286611838565b6001600160a01b0393909316602082015260400152919050565b6001600160a01b03861681526001600160401b03851660208201526001600160801b038416604082015260a0606082018190525f9061190d9083018561142b565b828103608084015261191f818561142b565b98975050505050505050565b600181811c9082168061193f57607f821691505b60208210810361195d57634e487b7160e01b5f52602260045260245ffd5b5091905056fea26469706673582212206c4b04f705be36db463ed80c16944a5bce295d040bb881d887677465a8ac106164736f6c634300081b0033","linkReferences":{}},"methodIdentifiers":{"REVOKE_AUTHORIZATION_THAWING_PERIOD()":"9b952881","authorizations(address)":"3a13e1af","authorizeSigner(address,uint256,bytes)":"fee9f01f","cancelThawSigner(address)":"015cdd80","collect(uint8,bytes)":"7f07d283","collect(uint8,bytes,uint256)":"692209ce","eip712Domain()":"84b0196e","encodeRAV((bytes32,address,address,address,uint64,uint128,bytes))":"26969c4c","getThawEnd(address)":"bea5d2ab","isAuthorized(address,address)":"65e4ad9e","recoverRAVSigner(((bytes32,address,address,address,uint64,uint128,bytes),bytes))":"63648817","revokeAuthorizedSigner(address)":"39aa7416","thawSigner(address)":"1354f019","tokensCollected(address,bytes32,address,address)":"181250ff"},"id":17}