{"abi":[{"type":"constructor","inputs":[{"name":"governor_","type":"address","internalType":"address"}],"stateMutability":"nonpayable"},{"type":"function","name":"getContractProxy","inputs":[{"name":"id","type":"bytes32","internalType":"bytes32"}],"outputs":[{"name":"","type":"address","internalType":"address"}],"stateMutability":"view"},{"type":"function","name":"getGovernor","inputs":[],"outputs":[{"name":"","type":"address","internalType":"address"}],"stateMutability":"view"},{"type":"function","name":"governor","inputs":[],"outputs":[{"name":"","type":"address","internalType":"address"}],"stateMutability":"view"},{"type":"function","name":"partialPaused","inputs":[],"outputs":[{"name":"","type":"bool","internalType":"bool"}],"stateMutability":"view"},{"type":"function","name":"paused","inputs":[],"outputs":[{"name":"","type":"bool","internalType":"bool"}],"stateMutability":"view"},{"type":"function","name":"setContractProxy","inputs":[{"name":"id","type":"bytes32","internalType":"bytes32"},{"name":"contractAddress","type":"address","internalType":"address"}],"outputs":[],"stateMutability":"nonpayable"},{"type":"function","name":"setPartialPaused","inputs":[{"name":"toPause","type":"bool","internalType":"bool"}],"outputs":[],"stateMutability":"nonpayable"},{"type":"function","name":"setPauseGuardian","inputs":[{"name":"newPauseGuardian","type":"address","internalType":"address"}],"outputs":[],"stateMutability":"nonpayable"},{"type":"function","name":"setPaused","inputs":[{"name":"toPause","type":"bool","internalType":"bool"}],"outputs":[],"stateMutability":"nonpayable"},{"type":"function","name":"unsetContractProxy","inputs":[{"name":"id","type":"bytes32","internalType":"bytes32"}],"outputs":[],"stateMutability":"nonpayable"},{"type":"function","name":"updateController","inputs":[{"name":"id","type":"bytes32","internalType":"bytes32"},{"name":"controller","type":"address","internalType":"address"}],"outputs":[],"stateMutability":"nonpayable"},{"type":"event","name":"SetContractProxy","inputs":[{"name":"id","type":"bytes32","indexed":true,"internalType":"bytes32"},{"name":"contractAddress","type":"address","indexed":false,"internalType":"address"}],"anonymous":false}],"bytecode":{"object":"0x6080604052348015600e575f5ffd5b5060405161057e38038061057e833981016040819052602b91604f565b600180546001600160a01b0319166001600160a01b0392909216919091179055607a565b5f60208284031215605e575f5ffd5b81516001600160a01b03811681146073575f5ffd5b9392505050565b6104f7806100875f395ff3fe608060405234801561000f575f5ffd5b50600436106100a6575f3560e01c806356371bd81161006e57806356371bd81461014a5780635c975abb146101765780639181df9c14610188578063e0e992921461019b578063eb5dd94f146101ae578063f7641a5e146101c1575f5ffd5b80630c340a24146100aa57806316c38b3c146100da5780632e292fc71461010857806348bde20c146101265780634fc07d7514610139575b5f5ffd5b6001546100bd906001600160a01b031681565b6040516001600160a01b0390911681526020015b60405180910390f35b6101066100e8366004610426565b60018054911515600160a01b0260ff60a01b19909216919091179055565b005b600154600160a81b900460ff165b60405190151581526020016100d1565b610106610134366004610467565b6101e9565b6001546001600160a01b03166100bd565b610106610158366004610426565b60018054911515600160a81b0260ff60a81b19909216919091179055565b600154600160a01b900460ff16610116565b610106610196366004610480565b610266565b6101066101a9366004610497565b6102b6565b6101066101bc366004610497565b61036d565b6100bd6101cf366004610480565b5f908152602081905260409020546001600160a01b031690565b6001600160a01b0381166102445760405162461bcd60e51b815260206004820152601960248201527f5061757365477561726469616e206d757374206265207365740000000000000060448201526064015b60405180910390fd5b600280546001600160a01b0319166001600160a01b0392909216919091179055565b5f8181526020818152604080832080546001600160a01b03191690555191825282917f937cf566d78d4769ff0211a7d87a6bea51e1fc026fd4d3d8cd589f0e99b983bd910160405180910390a250565b6001600160a01b03811661030c5760405162461bcd60e51b815260206004820152601c60248201527f436f6e74726163742061646472657373206d7573742062652073657400000000604482015260640161023b565b5f828152602081815260409182902080546001600160a01b0319166001600160a01b038516908117909155915191825283917f937cf566d78d4769ff0211a7d87a6bea51e1fc026fd4d3d8cd589f0e99b983bd910160405180910390a25050565b6001600160a01b0381166103bc5760405162461bcd60e51b815260206004820152601660248201527510dbdb9d1c9bdb1b195c881b5d5cdd081899481cd95d60521b604482015260640161023b565b5f82815260208190526040908190205490516392eefe9b60e01b81526001600160a01b038381166004830152909116906392eefe9b906024015f604051808303815f87803b15801561040c575f5ffd5b505af115801561041e573d5f5f3e3d5ffd5b505050505050565b5f60208284031215610436575f5ffd5b81358015158114610445575f5ffd5b9392505050565b80356001600160a01b0381168114610462575f5ffd5b919050565b5f60208284031215610477575f5ffd5b6104458261044c565b5f60208284031215610490575f5ffd5b5035919050565b5f5f604083850312156104a8575f5ffd5b823591506104b86020840161044c565b9050925092905056fea26469706673582212200f4f0ed4d7f4fad8ec71edeb9a5d0d65c55d044123bed8487bfcc6ff3dc08eb964736f6c634300081b0033","linkReferences":{}},"methodIdentifiers":{"getContractProxy(bytes32)":"f7641a5e","getGovernor()":"4fc07d75","governor()":"0c340a24","partialPaused()":"2e292fc7","paused()":"5c975abb","setContractProxy(bytes32,address)":"e0e99292","setPartialPaused(bool)":"56371bd8","setPauseGuardian(address)":"48bde20c","setPaused(bool)":"16c38b3c","unsetContractProxy(bytes32)":"9181df9c","updateController(bytes32,address)":"eb5dd94f"},"id":13}