{"abi":[{"type":"constructor","inputs":[{"name":"controller","type":"address","internalType":"address"},{"name":"withdrawEscrowThawingPeriod","type":"uint256","internalType":"uint256"}],"stateMutability":"nonpayable"},{"type":"function","name":"MAX_WAIT_PERIOD","inputs":[],"outputs":[{"name":"","type":"uint256","internalType":"uint256"}],"stateMutability":"view"},{"type":"function","name":"WITHDRAW_ESCROW_THAWING_PERIOD","inputs":[],"outputs":[{"name":"","type":"uint256","internalType":"uint256"}],"stateMutability":"view"},{"type":"function","name":"cancelThaw","inputs":[{"name":"collector","type":"address","internalType":"address"},{"name":"receiver","type":"address","internalType":"address"}],"outputs":[],"stateMutability":"nonpayable"},{"type":"function","name":"collect","inputs":[{"name":"paymentType","type":"uint8","internalType":"enum IGraphPayments.PaymentTypes"},{"name":"payer","type":"address","internalType":"address"},{"name":"receiver","type":"address","internalType":"address"},{"name":"tokens","type":"uint256","internalType":"uint256"},{"name":"dataService","type":"address","internalType":"address"},{"name":"dataServiceCut","type":"uint256","internalType":"uint256"},{"name":"receiverDestination","type":"address","internalType":"address"}],"outputs":[],"stateMutability":"nonpayable"},{"type":"function","name":"deposit","inputs":[{"name":"collector","type":"address","internalType":"address"},{"name":"receiver","type":"address","internalType":"address"},{"name":"tokens","type":"uint256","internalType":"uint256"}],"outputs":[],"stateMutability":"nonpayable"},{"type":"function","name":"depositTo","inputs":[{"name":"payer","type":"address","internalType":"address"},{"name":"collector","type":"address","internalType":"address"},{"name":"receiver","type":"address","internalType":"address"},{"name":"tokens","type":"uint256","internalType":"uint256"}],"outputs":[],"stateMutability":"nonpayable"},{"type":"function","name":"escrowAccounts","inputs":[{"name":"payer","type":"address","internalType":"address"},{"name":"collector","type":"address","internalType":"address"},{"name":"receiver","type":"address","internalType":"address"}],"outputs":[{"name":"balance","type":"uint256","internalType":"uint256"},{"name":"tokensThawing","type":"uint256","internalType":"uint256"},{"name":"thawEndTimestamp","type":"uint256","internalType":"uint256"}],"stateMutability":"view"},{"type":"function","name":"getBalance","inputs":[{"name":"payer","type":"address","internalType":"address"},{"name":"collector","type":"address","internalType":"address"},{"name":"receiver","type":"address","internalType":"address"}],"outputs":[{"name":"","type":"uint256","internalType":"uint256"}],"stateMutability":"view"},{"type":"function","name":"initialize","inputs":[],"outputs":[],"stateMutability":"nonpayable"},{"type":"function","name":"multicall","inputs":[{"name":"data","type":"bytes[]","internalType":"bytes[]"}],"outputs":[{"name":"results","type":"bytes[]","internalType":"bytes[]"}],"stateMutability":"nonpayable"},{"type":"function","name":"thaw","inputs":[{"name":"collector","type":"address","internalType":"address"},{"name":"receiver","type":"address","internalType":"address"},{"name":"tokens","type":"uint256","internalType":"uint256"}],"outputs":[],"stateMutability":"nonpayable"},{"type":"function","name":"withdraw","inputs":[{"name":"collector","type":"address","internalType":"address"},{"name":"receiver","type":"address","internalType":"address"}],"outputs":[],"stateMutability":"nonpayable"},{"type":"event","name":"CancelThaw","inputs":[{"name":"payer","type":"address","indexed":true,"internalType":"address"},{"name":"collector","type":"address","indexed":true,"internalType":"address"},{"name":"receiver","type":"address","indexed":true,"internalType":"address"},{"name":"tokensThawing","type":"uint256","indexed":false,"internalType":"uint256"},{"name":"thawEndTimestamp","type":"uint256","indexed":false,"internalType":"uint256"}],"anonymous":false},{"type":"event","name":"Deposit","inputs":[{"name":"payer","type":"address","indexed":true,"internalType":"address"},{"name":"collector","type":"address","indexed":true,"internalType":"address"},{"name":"receiver","type":"address","indexed":true,"internalType":"address"},{"name":"tokens","type":"uint256","indexed":false,"internalType":"uint256"}],"anonymous":false},{"type":"event","name":"EscrowCollected","inputs":[{"name":"paymentType","type":"uint8","indexed":true,"internalType":"enum IGraphPayments.PaymentTypes"},{"name":"payer","type":"address","indexed":true,"internalType":"address"},{"name":"collector","type":"address","indexed":true,"internalType":"address"},{"name":"receiver","type":"address","indexed":false,"internalType":"address"},{"name":"tokens","type":"uint256","indexed":false,"internalType":"uint256"},{"name":"receiverDestination","type":"address","indexed":false,"internalType":"address"}],"anonymous":false},{"type":"event","name":"GraphDirectoryInitialized","inputs":[{"name":"graphToken","type":"address","indexed":true,"internalType":"address"},{"name":"graphStaking","type":"address","indexed":true,"internalType":"address"},{"name":"graphPayments","type":"address","indexed":false,"internalType":"address"},{"name":"graphEscrow","type":"address","indexed":false,"internalType":"address"},{"name":"graphController","type":"address","indexed":true,"internalType":"address"},{"name":"graphEpochManager","type":"address","indexed":false,"internalType":"address"},{"name":"graphRewardsManager","type":"address","indexed":false,"internalType":"address"},{"name":"graphTokenGateway","type":"address","indexed":false,"internalType":"address"},{"name":"graphProxyAdmin","type":"address","indexed":false,"internalType":"address"},{"name":"graphCuration","type":"address","indexed":false,"internalType":"address"}],"anonymous":false},{"type":"event","name":"Initialized","inputs":[{"name":"version","type":"uint64","indexed":false,"internalType":"uint64"}],"anonymous":false},{"type":"event","name":"Thaw","inputs":[{"name":"payer","type":"address","indexed":true,"internalType":"address"},{"name":"collector","type":"address","indexed":true,"internalType":"address"},{"name":"receiver","type":"address","indexed":true,"internalType":"address"},{"name":"tokens","type":"uint256","indexed":false,"internalType":"uint256"},{"name":"thawEndTimestamp","type":"uint256","indexed":false,"internalType":"uint256"}],"anonymous":false},{"type":"event","name":"Withdraw","inputs":[{"name":"payer","type":"address","indexed":true,"internalType":"address"},{"name":"collector","type":"address","indexed":true,"internalType":"address"},{"name":"receiver","type":"address","indexed":true,"internalType":"address"},{"name":"tokens","type":"uint256","indexed":false,"internalType":"uint256"}],"anonymous":false},{"type":"error","name":"AddressEmptyCode","inputs":[{"name":"target","type":"address","internalType":"address"}]},{"type":"error","name":"FailedCall","inputs":[]},{"type":"error","name":"GraphDirectoryInvalidZeroAddress","inputs":[{"name":"contractName","type":"bytes","internalType":"bytes"}]},{"type":"error","name":"InvalidInitialization","inputs":[]},{"type":"error","name":"NotInitializing","inputs":[]},{"type":"error","name":"PaymentsEscrowInconsistentCollection","inputs":[{"name":"balanceBefore","type":"uint256","internalType":"uint256"},{"name":"balanceAfter","type":"uint256","internalType":"uint256"},{"name":"tokens","type":"uint256","internalType":"uint256"}]},{"type":"error","name":"PaymentsEscrowInsufficientBalance","inputs":[{"name":"balance","type":"uint256","internalType":"uint256"},{"name":"minBalance","type":"uint256","internalType":"uint256"}]},{"type":"error","name":"PaymentsEscrowInvalidZeroTokens","inputs":[]},{"type":"error","name":"PaymentsEscrowIsPaused","inputs":[]},{"type":"error","name":"PaymentsEscrowNotThawing","inputs":[]},{"type":"error","name":"PaymentsEscrowStillThawing","inputs":[{"name":"currentTimestamp","type":"uint256","internalType":"uint256"},{"name":"thawEndTimestamp","type":"uint256","internalType":"uint256"}]},{"type":"error","name":"PaymentsEscrowThawingPeriodTooLong","inputs":[{"name":"thawingPeriod","type":"uint256","internalType":"uint256"},{"name":"maxWaitPeriod","type":"uint256","internalType":"uint256"}]}],"bytecode":{"object":"0x6101e0604052348015610010575f5ffd5b50604051611be6380380611be683398101604081905261002f916104ea565b816001600160a01b0381166100795760405163218f5add60e11b815260206004820152600a60248201526921b7b73a3937b63632b960b11b60448201526064015b60405180910390fd5b6001600160a01b0381166101005260408051808201909152600a81526923b930b8342a37b5b2b760b11b60208201526100b190610372565b6001600160a01b03166080526040805180820190915260078152665374616b696e6760c81b60208201526100e490610372565b6001600160a01b031660a05260408051808201909152600d81526c47726170685061796d656e747360981b602082015261011d90610372565b6001600160a01b031660c05260408051808201909152600e81526d5061796d656e7473457363726f7760901b602082015261015790610372565b6001600160a01b031660e05260408051808201909152600c81526b22b837b1b426b0b730b3b2b960a11b602082015261018f90610372565b6001600160a01b03166101205260408051808201909152600e81526d2932bbb0b93239a6b0b730b3b2b960911b60208201526101ca90610372565b6001600160a01b0316610140526040805180820190915260118152704772617068546f6b656e4761746577617960781b602082015261020890610372565b6001600160a01b03166101605260408051808201909152600f81526e23b930b834283937bc3ca0b236b4b760891b602082015261024490610372565b6001600160a01b03166101805260408051808201909152600881526721bab930ba34b7b760c11b602082015261027990610372565b6001600160a01b039081166101a08190526101005160a05160805160c05160e05161012051610140516101605161018051604051988b169a9788169996909716977fef5021414834d86e36470f5c1cecf6544fb2bb723f2ca51a4c86fcd8c5919a43976103239790916001600160a01b03978816815295871660208701529386166040860152918516606085015284166080840152831660a083015290911660c082015260e00190565b60405180910390a450806276a7008082111561035b57604051635c0f65a160e01b815260048101929092526024820152604401610070565b50506101c081905261036b61041d565b5050610569565b5f5f610100516001600160a01b031663f7641a5e84805190602001206040518263ffffffff1660e01b81526004016103ac91815260200190565b602060405180830381865afa1580156103c7573d5f5f3e3d5ffd5b505050506040513d601f19601f820116820180604052508101906103eb9190610514565b9050826001600160a01b0382166104165760405163218f5add60e11b81526004016100709190610534565b5092915050565b7ff0c57e16840df040f15088dc2f81fe391c3923bec73e23a9662efc9c229c6a00805468010000000000000000900460ff161561046d5760405163f92ee8a960e01b815260040160405180910390fd5b80546001600160401b03908116146104cc5780546001600160401b0319166001600160401b0390811782556040519081527fc7f505b2f371ae2175ee4913f4499e1f2633a7b5936321eed1cdaeb6115181d29060200160405180910390a15b50565b80516001600160a01b03811681146104e5575f5ffd5b919050565b5f5f604083850312156104fb575f5ffd5b610504836104cf565b9150602083015190509250929050565b5f60208284031215610524575f5ffd5b61052d826104cf565b9392505050565b602081525f82518060208401528060208501604085015e5f604082850101526040601f19601f83011684010191505092915050565b60805160a05160c05160e05161010051610120516101405161016051610180516101a0516101c0516115cc61061a5f395f81816101400152610c4001525f50505f50505f50505f50505f50505f81816102030152818161062e015281816107d50152818161096b01528181610b1d0152610cc501525f50505f81816103d2015261047701525f50505f8181610318015281816103a3015281816104e901528181610e330152610efa01526115cc5ff3fe608060405234801561000f575f5ffd5b50600436106100b1575f3560e01c8063ac9650d81161006e578063ac9650d81461018b578063b1d07de4146101ab578063b2168b6b146101be578063d6bd603c146101c8578063f93f1cd0146101db578063f940e385146101ee575f5ffd5b80631230fa3e146100b557806372eb521e146100ca5780637a8df28b146100dd5780637b8ae6cf1461013b5780638129fc1c146101705780638340f54914610178575b5f5ffd5b6100c86100c33660046111c2565b610201565b005b6100c86100d836600461123a565b61062c565b61011b6100eb366004611282565b5f602081815293815260408082208552928152828120909352825290208054600182015460029092015490919083565b604080519384526020840192909252908201526060015b60405180910390f35b6101627f000000000000000000000000000000000000000000000000000000000000000081565b604051908152602001610132565b6100c86106dc565b6100c86101863660046112c2565b6107d3565b61019e6101993660046112fc565b610882565b604051610132919061136d565b6100c86101b93660046113f1565b610969565b6101626276a70081565b6101626101d6366004611282565b610ac1565b6100c86101e93660046112c2565b610b1b565b6100c86101fc3660046113f1565b610cc3565b7f00000000000000000000000000000000000000000000000000000000000000006001600160a01b0316635c975abb6040518163ffffffff1660e01b8152600401602060405180830381865afa15801561025d573d5f5f3e3d5ffd5b505050506040513d601f19601f820116820180604052508101906102819190611422565b1561029f57604051639e68cf0b60e01b815260040160405180910390fd5b6001600160a01b038087165f908152602081815260408083203384528252808320938916835292905220805485808210156102fb57604051633db4e69160e01b8152600481019290925260248201526044015b60405180910390fd5b505084815f015f82825461030f919061145c565b909155505f90507f00000000000000000000000000000000000000000000000000000000000000006040516370a0823160e01b81523060048201526001600160a01b0391909116906370a0823190602401602060405180830381865afa15801561037b573d5f5f3e3d5ffd5b505050506040513d601f19601f8201168201806040525081019061039f919061146f565b90507f00000000000000000000000000000000000000000000000000000000000000006001600160a01b031663095ea7b37f00000000000000000000000000000000000000000000000000000000000000006040516001600160e01b031960e084901b1681526001600160a01b039091166004820152602481018990526044016020604051808303815f875af115801561043b573d5f5f3e3d5ffd5b505050506040513d601f19601f8201168201806040525081019061045f9190611422565b5060405163040e688d60e51b81526001600160a01b037f000000000000000000000000000000000000000000000000000000000000000016906381cd11a0906104b6908c908b908b908b908b908b9060040161149a565b5f604051808303815f87803b1580156104cd575f5ffd5b505af11580156104df573d5f5f3e3d5ffd5b505050505f61050b7f000000000000000000000000000000000000000000000000000000000000000090565b6040516370a0823160e01b81523060048201526001600160a01b0391909116906370a0823190602401602060405180830381865afa15801561054f573d5f5f3e3d5ffd5b505050506040513d601f19601f82011682018060405250810190610573919061146f565b905061057f81886114ee565b82148282899091926105b557604051631f82726b60e21b81526004810193909352602483019190915260448201526064016102f2565b50339150506001600160a01b038a168b60028111156105d6576105d6611486565b604080516001600160a01b038d81168252602082018d905289168183015290517f399b99b484be516eace7ececa486139581a25b0d2d12dac8bfa0948d07a8c9139181900360600190a450505050505050505050565b7f00000000000000000000000000000000000000000000000000000000000000006001600160a01b0316635c975abb6040518163ffffffff1660e01b8152600401602060405180830381865afa158015610688573d5f5f3e3d5ffd5b505050506040513d601f19601f820116820180604052508101906106ac9190611422565b156106ca57604051639e68cf0b60e01b815260040160405180910390fd5b6106d684848484610ea9565b50505050565b5f6106e5610f70565b805490915060ff600160401b820416159067ffffffffffffffff165f8115801561070c5750825b90505f8267ffffffffffffffff1660011480156107285750303b155b905081158015610736575080155b156107545760405163f92ee8a960e01b815260040160405180910390fd5b845467ffffffffffffffff19166001178555831561077e57845460ff60401b1916600160401b1785555b610786610f98565b83156107cc57845460ff60401b19168555604051600181527fc7f505b2f371ae2175ee4913f4499e1f2633a7b5936321eed1cdaeb6115181d29060200160405180910390a15b5050505050565b7f00000000000000000000000000000000000000000000000000000000000000006001600160a01b0316635c975abb6040518163ffffffff1660e01b8152600401602060405180830381865afa15801561082f573d5f5f3e3d5ffd5b505050506040513d601f19601f820116820180604052508101906108539190611422565b1561087157604051639e68cf0b60e01b815260040160405180910390fd5b61087d33848484610ea9565b505050565b604080515f8152602081019091526060908267ffffffffffffffff8111156108ac576108ac611501565b6040519080825280602002602001820160405280156108df57816020015b60608152602001906001900390816108ca5790505b5091505f5b838110156109605761093b3086868481811061090257610902611515565b90506020028101906109149190611529565b8560405160200161092793929190611573565b604051602081830303815290604052610fa2565b83828151811061094d5761094d611515565b60209081029190910101526001016108e4565b50505b92915050565b7f00000000000000000000000000000000000000000000000000000000000000006001600160a01b0316635c975abb6040518163ffffffff1660e01b8152600401602060405180830381865afa1580156109c5573d5f5f3e3d5ffd5b505050506040513d601f19601f820116820180604052508101906109e99190611422565b15610a0757604051639e68cf0b60e01b815260040160405180910390fd5b335f908152602081815260408083206001600160a01b038681168552908352818420908516845290915281206001810154909103610a5857604051638cbd172f60e01b815260040160405180910390fd5b6001810180546002830180545f9384905592905560408051828152602081018490529192916001600160a01b03868116929088169133917f6c4ed34e7347a8682024ee40d393e45f4075c46c593aaaed3cc3e49dd6933535910160405180910390a45050505050565b6001600160a01b038084165f908152602081815260408083208685168452825280832093851683529290529081206001810154815411610b01575f610b12565b60018101548154610b12919061145c565b95945050505050565b7f00000000000000000000000000000000000000000000000000000000000000006001600160a01b0316635c975abb6040518163ffffffff1660e01b8152600401602060405180830381865afa158015610b77573d5f5f3e3d5ffd5b505050506040513d601f19601f82011682018060405250810190610b9b9190611422565b15610bb957604051639e68cf0b60e01b815260040160405180910390fd5b5f8111610bd957604051633aff1f3760e21b815260040160405180910390fd5b335f908152602081815260408083206001600160a01b0387811685529083528184209086168452909152902080548280821015610c3257604051633db4e69160e01b8152600481019290925260248201526044016102f2565b505060018101829055610c657f0000000000000000000000000000000000000000000000000000000000000000426114ee565b600282018190556040516001600160a01b03808616929087169133917fba109e8a47e57c895aa1802554cd51025499c2b07c3c9b467c70413a4434ffbc91610cb591888252602082015260400190565b60405180910390a450505050565b7f00000000000000000000000000000000000000000000000000000000000000006001600160a01b0316635c975abb6040518163ffffffff1660e01b8152600401602060405180830381865afa158015610d1f573d5f5f3e3d5ffd5b505050506040513d601f19601f82011682018060405250810190610d439190611422565b15610d6157604051639e68cf0b60e01b815260040160405180910390fd5b335f908152602081815260408083206001600160a01b038681168552908352818420908516845290915281206002810154909103610db257604051638cbd172f60e01b815260040160405180910390fd5b60028101544290818110610de257604051633c50db7960e11b8152600481019290925260248201526044016102f2565b50505f815f0154826001015411610dfd578160010154610e00565b81545b905080825f015f828254610e14919061145c565b90915550505f600183018190556002830155610e5a6001600160a01b037f0000000000000000000000000000000000000000000000000000000000000000163383611042565b826001600160a01b0316846001600160a01b0316336001600160a01b03167f3115d1449a7b732c986cba18244e897a450f61e1bb8d589cd2e69e6c8924f9f784604051610cb591815260200190565b6001600160a01b038085165f908152602081815260408083208785168452825280832093861683529290529081208054839290610ee79084906114ee565b90915550610f2190506001600160a01b037f00000000000000000000000000000000000000000000000000000000000000001633836110f1565b816001600160a01b0316836001600160a01b0316856001600160a01b03167f7cfff908a4b583f36430b25d75964c458d8ede8a99bd61be750e97ee1b2f3a9684604051610cb591815260200190565b5f807ff0c57e16840df040f15088dc2f81fe391c3923bec73e23a9662efc9c229c6a00610963565b610fa0611132565b565b60605f610faf8484611157565b9050808015610fd057505f3d1180610fd057505f846001600160a01b03163b115b15610fe557610fdd61116a565b915050610963565b801561100f57604051639996b31560e01b81526001600160a01b03851660048201526024016102f2565b3d156110225761101d611183565b61103b565b60405163d6bda27560e01b815260040160405180910390fd5b5092915050565b801561087d5760405163a9059cbb60e01b81526001600160a01b0383811660048301526024820183905284169063a9059cbb906044015b6020604051808303815f875af1158015611095573d5f5f3e3d5ffd5b505050506040513d601f19601f820116820180604052508101906110b99190611422565b61087d5760405162461bcd60e51b815260206004820152600960248201526810ba3930b739b332b960b91b60448201526064016102f2565b801561087d576040516323b872dd60e01b81526001600160a01b038381166004830152306024830152604482018390528416906323b872dd90606401611079565b61113a61118e565b610fa057604051631afcd79f60e31b815260040160405180910390fd5b5f5f5f835160208501865af49392505050565b6040513d81523d5f602083013e3d602001810160405290565b6040513d5f823e3d81fd5b5f611197610f70565b54600160401b900460ff16919050565b80356001600160a01b03811681146111bd575f5ffd5b919050565b5f5f5f5f5f5f5f60e0888a0312156111d8575f5ffd5b8735600381106111e6575f5ffd5b96506111f4602089016111a7565b9550611202604089016111a7565b945060608801359350611217608089016111a7565b925060a0880135915061122c60c089016111a7565b905092959891949750929550565b5f5f5f5f6080858703121561124d575f5ffd5b611256856111a7565b9350611264602086016111a7565b9250611272604086016111a7565b9396929550929360600135925050565b5f5f5f60608486031215611294575f5ffd5b61129d846111a7565b92506112ab602085016111a7565b91506112b9604085016111a7565b90509250925092565b5f5f5f606084860312156112d4575f5ffd5b6112dd846111a7565b92506112eb602085016111a7565b929592945050506040919091013590565b5f5f6020838503121561130d575f5ffd5b823567ffffffffffffffff811115611323575f5ffd5b8301601f81018513611333575f5ffd5b803567ffffffffffffffff811115611349575f5ffd5b8560208260051b840101111561135d575f5ffd5b6020919091019590945092505050565b5f602082016020835280845180835260408501915060408160051b8601019250602086015f5b828110156113e557603f19878603018452815180518087528060208301602089015e5f602082890101526020601f19601f83011688010196505050602082019150602084019350600181019050611393565b50929695505050505050565b5f5f60408385031215611402575f5ffd5b61140b836111a7565b9150611419602084016111a7565b90509250929050565b5f60208284031215611432575f5ffd5b81518015158114611441575f5ffd5b9392505050565b634e487b7160e01b5f52601160045260245ffd5b8181038181111561096357610963611448565b5f6020828403121561147f575f5ffd5b5051919050565b634e487b7160e01b5f52602160045260245ffd5b60c08101600388106114ba57634e487b7160e01b5f52602160045260245ffd5b9681526001600160a01b03958616602082015260408101949094529184166060840152608083015290911660a09091015290565b8082018082111561096357610963611448565b634e487b7160e01b5f52604160045260245ffd5b634e487b7160e01b5f52603260045260245ffd5b5f5f8335601e1984360301811261153e575f5ffd5b83018035915067ffffffffffffffff821115611558575f5ffd5b60200191503681900382131561156c575f5ffd5b9250929050565b828482375f8382015f815283518060208601835e5f91019081529594505050505056fea26469706673582212205864e598fe75f4cd6ffc6a565dc6f2f342656a0b20918dbb90ae4ae5cbf8e33f64736f6c634300081b0033","linkReferences":{}},"methodIdentifiers":{"MAX_WAIT_PERIOD()":"b2168b6b","WITHDRAW_ESCROW_THAWING_PERIOD()":"7b8ae6cf","cancelThaw(address,address)":"b1d07de4","collect(uint8,address,address,uint256,address,uint256,address)":"1230fa3e","deposit(address,address,uint256)":"8340f549","depositTo(address,address,address,uint256)":"72eb521e","escrowAccounts(address,address,address)":"7a8df28b","getBalance(address,address,address)":"d6bd603c","initialize()":"8129fc1c","multicall(bytes[])":"ac9650d8","thaw(address,address,uint256)":"f93f1cd0","withdraw(address,address)":"f940e385"},"id":16}