{"abi":[{"type":"constructor","inputs":[{"name":"owner_","type":"address","internalType":"address"},{"name":"controller","type":"address","internalType":"address"},{"name":"graphTallyCollector","type":"address","internalType":"address"},{"name":"pauseGuardian","type":"address","internalType":"address"}],"stateMutability":"nonpayable"},{"type":"function","name":"DEFAULT_MIN_PROVISION","inputs":[],"outputs":[{"name":"","type":"uint256","internalType":"uint256"}],"stateMutability":"view"},{"type":"function","name":"MIN_THAWING_PERIOD","inputs":[],"outputs":[{"name":"","type":"uint64","internalType":"uint64"}],"stateMutability":"view"},{"type":"function","name":"STAKE_TO_FEES_RATIO","inputs":[],"outputs":[{"name":"","type":"uint256","internalType":"uint256"}],"stateMutability":"view"},{"type":"function","name":"acceptProvisionPendingParameters","inputs":[{"name":"serviceProvider","type":"address","internalType":"address"},{"name":"","type":"bytes","internalType":"bytes"}],"outputs":[],"stateMutability":"nonpayable"},{"type":"function","name":"activeRegistrationCount","inputs":[{"name":"provider","type":"address","internalType":"address"}],"outputs":[{"name":"count","type":"uint256","internalType":"uint256"}],"stateMutability":"view"},{"type":"function","name":"addChain","inputs":[{"name":"chainId","type":"uint256","internalType":"uint256"},{"name":"minProvisionTokens","type":"uint256","internalType":"uint256"}],"outputs":[],"stateMutability":"nonpayable"},{"type":"function","name":"claims","inputs":[{"name":"claimId","type":"bytes32","internalType":"bytes32"}],"outputs":[{"name":"tokens","type":"uint256","internalType":"uint256"},{"name":"createdAt","type":"uint256","internalType":"uint256"},{"name":"releasableAt","type":"uint256","internalType":"uint256"},{"name":"nextClaim","type":"bytes32","internalType":"bytes32"}],"stateMutability":"view"},{"type":"function","name":"claimsLists","inputs":[{"name":"serviceProvider","type":"address","internalType":"address"}],"outputs":[{"name":"head","type":"bytes32","internalType":"bytes32"},{"name":"tail","type":"bytes32","internalType":"bytes32"},{"name":"nonce","type":"uint256","internalType":"uint256"},{"name":"count","type":"uint256","internalType":"uint256"}],"stateMutability":"view"},{"type":"function","name":"collect","inputs":[{"name":"serviceProvider","type":"address","internalType":"address"},{"name":"paymentType","type":"uint8","internalType":"enum IGraphPayments.PaymentTypes"},{"name":"data","type":"bytes","internalType":"bytes"}],"outputs":[{"name":"fees","type":"uint256","internalType":"uint256"}],"stateMutability":"nonpayable"},{"type":"function","name":"deregister","inputs":[{"name":"serviceProvider","type":"address","internalType":"address"},{"name":"","type":"bytes","internalType":"bytes"}],"outputs":[],"stateMutability":"nonpayable"},{"type":"function","name":"feesProvisionTracker","inputs":[{"name":"serviceProvider","type":"address","internalType":"address"}],"outputs":[{"name":"tokens","type":"uint256","internalType":"uint256"}],"stateMutability":"view"},{"type":"function","name":"getChainRegistrations","inputs":[{"name":"provider","type":"address","internalType":"address"}],"outputs":[{"name":"","type":"tuple[]","internalType":"struct IRPCDataService.ChainRegistration[]","components":[{"name":"chainId","type":"uint64","internalType":"uint64"},{"name":"tier","type":"uint8","internalType":"enum IRPCDataService.CapabilityTier"},{"name":"endpoint","type":"string","internalType":"string"},{"name":"active","type":"bool","internalType":"bool"}]}],"stateMutability":"view"},{"type":"function","name":"getDelegationRatio","inputs":[],"outputs":[{"name":"","type":"uint32","internalType":"uint32"}],"stateMutability":"view"},{"type":"function","name":"getProvisionTokensRange","inputs":[],"outputs":[{"name":"","type":"uint256","internalType":"uint256"},{"name":"","type":"uint256","internalType":"uint256"}],"stateMutability":"view"},{"type":"function","name":"getThawingPeriodRange","inputs":[],"outputs":[{"name":"","type":"uint64","internalType":"uint64"},{"name":"","type":"uint64","internalType":"uint64"}],"stateMutability":"view"},{"type":"function","name":"getVerifierCutRange","inputs":[],"outputs":[{"name":"","type":"uint32","internalType":"uint32"},{"name":"","type":"uint32","internalType":"uint32"}],"stateMutability":"view"},{"type":"function","name":"isRegistered","inputs":[{"name":"provider","type":"address","internalType":"address"}],"outputs":[{"name":"","type":"bool","internalType":"bool"}],"stateMutability":"view"},{"type":"function","name":"owner","inputs":[],"outputs":[{"name":"","type":"address","internalType":"address"}],"stateMutability":"view"},{"type":"function","name":"pause","inputs":[],"outputs":[],"stateMutability":"nonpayable"},{"type":"function","name":"pauseGuardians","inputs":[{"name":"pauseGuardian","type":"address","internalType":"address"}],"outputs":[{"name":"allowed","type":"bool","internalType":"bool"}],"stateMutability":"view"},{"type":"function","name":"paused","inputs":[],"outputs":[{"name":"","type":"bool","internalType":"bool"}],"stateMutability":"view"},{"type":"function","name":"paymentsDestination","inputs":[{"name":"","type":"address","internalType":"address"}],"outputs":[{"name":"","type":"address","internalType":"address"}],"stateMutability":"view"},{"type":"function","name":"register","inputs":[{"name":"serviceProvider","type":"address","internalType":"address"},{"name":"data","type":"bytes","internalType":"bytes"}],"outputs":[],"stateMutability":"nonpayable"},{"type":"function","name":"registeredProviders","inputs":[{"name":"","type":"address","internalType":"address"}],"outputs":[{"name":"","type":"bool","internalType":"bool"}],"stateMutability":"view"},{"type":"function","name":"releaseStake","inputs":[{"name":"numClaimsToRelease","type":"uint256","internalType":"uint256"}],"outputs":[],"stateMutability":"nonpayable"},{"type":"function","name":"removeChain","inputs":[{"name":"chainId","type":"uint256","internalType":"uint256"}],"outputs":[],"stateMutability":"nonpayable"},{"type":"function","name":"renounceOwnership","inputs":[],"outputs":[],"stateMutability":"nonpayable"},{"type":"function","name":"setDefaultMinProvision","inputs":[{"name":"tokens","type":"uint256","internalType":"uint256"}],"outputs":[],"stateMutability":"nonpayable"},{"type":"function","name":"setMinThawingPeriod","inputs":[{"name":"","type":"uint64","internalType":"uint64"}],"outputs":[],"stateMutability":"nonpayable"},{"type":"function","name":"setPaymentsDestination","inputs":[{"name":"destination","type":"address","internalType":"address"}],"outputs":[],"stateMutability":"nonpayable"},{"type":"function","name":"slash","inputs":[{"name":"","type":"address","internalType":"address"},{"name":"","type":"bytes","internalType":"bytes"}],"outputs":[],"stateMutability":"nonpayable"},{"type":"function","name":"startService","inputs":[{"name":"serviceProvider","type":"address","internalType":"address"},{"name":"data","type":"bytes","internalType":"bytes"}],"outputs":[],"stateMutability":"nonpayable"},{"type":"function","name":"stopService","inputs":[{"name":"serviceProvider","type":"address","internalType":"address"},{"name":"data","type":"bytes","internalType":"bytes"}],"outputs":[],"stateMutability":"nonpayable"},{"type":"function","name":"supportedChains","inputs":[{"name":"","type":"uint256","internalType":"uint256"}],"outputs":[{"name":"enabled","type":"bool","internalType":"bool"},{"name":"minProvisionTokens","type":"uint256","internalType":"uint256"}],"stateMutability":"view"},{"type":"function","name":"transferOwnership","inputs":[{"name":"newOwner","type":"address","internalType":"address"}],"outputs":[],"stateMutability":"nonpayable"},{"type":"function","name":"unpause","inputs":[],"outputs":[],"stateMutability":"nonpayable"},{"type":"event","name":"ChainAdded","inputs":[{"name":"chainId","type":"uint256","indexed":true,"internalType":"uint256"},{"name":"minProvisionTokens","type":"uint256","indexed":false,"internalType":"uint256"}],"anonymous":false},{"type":"event","name":"ChainRemoved","inputs":[{"name":"chainId","type":"uint256","indexed":true,"internalType":"uint256"}],"anonymous":false},{"type":"event","name":"DelegationRatioSet","inputs":[{"name":"ratio","type":"uint32","indexed":false,"internalType":"uint32"}],"anonymous":false},{"type":"event","name":"FraudProofSubmitted","inputs":[{"name":"provider","type":"address","indexed":true,"internalType":"address"},{"name":"challenger","type":"address","indexed":true,"internalType":"address"},{"name":"slashAmount","type":"uint256","indexed":false,"internalType":"uint256"}],"anonymous":false},{"type":"event","name":"GraphDirectoryInitialized","inputs":[{"name":"graphToken","type":"address","indexed":true,"internalType":"address"},{"name":"graphStaking","type":"address","indexed":true,"internalType":"address"},{"name":"graphPayments","type":"address","indexed":false,"internalType":"address"},{"name":"graphEscrow","type":"address","indexed":false,"internalType":"address"},{"name":"graphController","type":"address","indexed":true,"internalType":"address"},{"name":"graphEpochManager","type":"address","indexed":false,"internalType":"address"},{"name":"graphRewardsManager","type":"address","indexed":false,"internalType":"address"},{"name":"graphTokenGateway","type":"address","indexed":false,"internalType":"address"},{"name":"graphProxyAdmin","type":"address","indexed":false,"internalType":"address"},{"name":"graphCuration","type":"address","indexed":false,"internalType":"address"}],"anonymous":false},{"type":"event","name":"Initialized","inputs":[{"name":"version","type":"uint64","indexed":false,"internalType":"uint64"}],"anonymous":false},{"type":"event","name":"OwnershipTransferred","inputs":[{"name":"previousOwner","type":"address","indexed":true,"internalType":"address"},{"name":"newOwner","type":"address","indexed":true,"internalType":"address"}],"anonymous":false},{"type":"event","name":"PauseGuardianSet","inputs":[{"name":"account","type":"address","indexed":true,"internalType":"address"},{"name":"allowed","type":"bool","indexed":false,"internalType":"bool"}],"anonymous":false},{"type":"event","name":"Paused","inputs":[{"name":"account","type":"address","indexed":false,"internalType":"address"}],"anonymous":false},{"type":"event","name":"PaymentsDestinationSet","inputs":[{"name":"provider","type":"address","indexed":true,"internalType":"address"},{"name":"destination","type":"address","indexed":true,"internalType":"address"}],"anonymous":false},{"type":"event","name":"ProviderDeregistered","inputs":[{"name":"provider","type":"address","indexed":true,"internalType":"address"}],"anonymous":false},{"type":"event","name":"ProviderRegistered","inputs":[{"name":"provider","type":"address","indexed":true,"internalType":"address"},{"name":"endpoint","type":"string","indexed":false,"internalType":"string"},{"name":"geoHash","type":"string","indexed":false,"internalType":"string"}],"anonymous":false},{"type":"event","name":"ProvisionPendingParametersAccepted","inputs":[{"name":"serviceProvider","type":"address","indexed":true,"internalType":"address"}],"anonymous":false},{"type":"event","name":"ProvisionTokensRangeSet","inputs":[{"name":"min","type":"uint256","indexed":false,"internalType":"uint256"},{"name":"max","type":"uint256","indexed":false,"internalType":"uint256"}],"anonymous":false},{"type":"event","name":"ServicePaymentCollected","inputs":[{"name":"serviceProvider","type":"address","indexed":true,"internalType":"address"},{"name":"feeType","type":"uint8","indexed":true,"internalType":"enum IGraphPayments.PaymentTypes"},{"name":"tokens","type":"uint256","indexed":false,"internalType":"uint256"}],"anonymous":false},{"type":"event","name":"ServiceProviderRegistered","inputs":[{"name":"serviceProvider","type":"address","indexed":true,"internalType":"address"},{"name":"data","type":"bytes","indexed":false,"internalType":"bytes"}],"anonymous":false},{"type":"event","name":"ServiceProviderSlashed","inputs":[{"name":"serviceProvider","type":"address","indexed":true,"internalType":"address"},{"name":"tokens","type":"uint256","indexed":false,"internalType":"uint256"}],"anonymous":false},{"type":"event","name":"ServiceStarted","inputs":[{"name":"serviceProvider","type":"address","indexed":true,"internalType":"address"},{"name":"data","type":"bytes","indexed":false,"internalType":"bytes"}],"anonymous":false},{"type":"event","name":"ServiceStarted","inputs":[{"name":"provider","type":"address","indexed":true,"internalType":"address"},{"name":"chainId","type":"uint64","indexed":true,"internalType":"uint64"},{"name":"tier","type":"uint8","indexed":false,"internalType":"enum IRPCDataService.CapabilityTier"},{"name":"endpoint","type":"string","indexed":false,"internalType":"string"}],"anonymous":false},{"type":"event","name":"ServiceStopped","inputs":[{"name":"serviceProvider","type":"address","indexed":true,"internalType":"address"},{"name":"data","type":"bytes","indexed":false,"internalType":"bytes"}],"anonymous":false},{"type":"event","name":"ServiceStopped","inputs":[{"name":"provider","type":"address","indexed":true,"internalType":"address"},{"name":"chainId","type":"uint64","indexed":true,"internalType":"uint64"},{"name":"tier","type":"uint8","indexed":false,"internalType":"enum IRPCDataService.CapabilityTier"}],"anonymous":false},{"type":"event","name":"StakeClaimLocked","inputs":[{"name":"serviceProvider","type":"address","indexed":true,"internalType":"address"},{"name":"claimId","type":"bytes32","indexed":true,"internalType":"bytes32"},{"name":"tokens","type":"uint256","indexed":false,"internalType":"uint256"},{"name":"unlockTimestamp","type":"uint256","indexed":false,"internalType":"uint256"}],"anonymous":false},{"type":"event","name":"StakeClaimReleased","inputs":[{"name":"serviceProvider","type":"address","indexed":true,"internalType":"address"},{"name":"claimId","type":"bytes32","indexed":true,"internalType":"bytes32"},{"name":"tokens","type":"uint256","indexed":false,"internalType":"uint256"},{"name":"releasableAt","type":"uint256","indexed":false,"internalType":"uint256"}],"anonymous":false},{"type":"event","name":"StakeClaimsReleased","inputs":[{"name":"serviceProvider","type":"address","indexed":true,"internalType":"address"},{"name":"claimsCount","type":"uint256","indexed":false,"internalType":"uint256"},{"name":"tokensReleased","type":"uint256","indexed":false,"internalType":"uint256"}],"anonymous":false},{"type":"event","name":"ThawingPeriodRangeSet","inputs":[{"name":"min","type":"uint64","indexed":false,"internalType":"uint64"},{"name":"max","type":"uint64","indexed":false,"internalType":"uint64"}],"anonymous":false},{"type":"event","name":"Unpaused","inputs":[{"name":"account","type":"address","indexed":false,"internalType":"address"}],"anonymous":false},{"type":"event","name":"VerifierCutRangeSet","inputs":[{"name":"min","type":"uint32","indexed":false,"internalType":"uint32"},{"name":"max","type":"uint32","indexed":false,"internalType":"uint32"}],"anonymous":false},{"type":"error","name":"ActiveRegistrationsExist","inputs":[{"name":"provider","type":"address","internalType":"address"}]},{"type":"error","name":"ChainNotSupported","inputs":[{"name":"chainId","type":"uint256","internalType":"uint256"}]},{"type":"error","name":"DataServiceFeesClaimNotFound","inputs":[{"name":"claimId","type":"bytes32","internalType":"bytes32"}]},{"type":"error","name":"DataServiceFeesZeroTokens","inputs":[]},{"type":"error","name":"DataServicePausableNotPauseGuardian","inputs":[{"name":"account","type":"address","internalType":"address"}]},{"type":"error","name":"DataServicePausablePauseGuardianNoChange","inputs":[{"name":"account","type":"address","internalType":"address"},{"name":"allowed","type":"bool","internalType":"bool"}]},{"type":"error","name":"EnforcedPause","inputs":[]},{"type":"error","name":"ExpectedPause","inputs":[]},{"type":"error","name":"GraphDirectoryInvalidZeroAddress","inputs":[{"name":"contractName","type":"bytes","internalType":"bytes"}]},{"type":"error","name":"InsufficientProvision","inputs":[{"name":"required","type":"uint256","internalType":"uint256"},{"name":"actual","type":"uint256","internalType":"uint256"}]},{"type":"error","name":"InvalidFraudProof","inputs":[{"name":"reason","type":"string","internalType":"string"}]},{"type":"error","name":"InvalidInitialization","inputs":[]},{"type":"error","name":"InvalidPaymentType","inputs":[]},{"type":"error","name":"LinkedListEmptyList","inputs":[]},{"type":"error","name":"LinkedListInvalidIterations","inputs":[]},{"type":"error","name":"LinkedListInvalidZeroId","inputs":[]},{"type":"error","name":"LinkedListMaxElementsExceeded","inputs":[]},{"type":"error","name":"NotInitializing","inputs":[]},{"type":"error","name":"OwnableInvalidOwner","inputs":[{"name":"owner","type":"address","internalType":"address"}]},{"type":"error","name":"OwnableUnauthorizedAccount","inputs":[{"name":"account","type":"address","internalType":"address"}]},{"type":"error","name":"ProviderAlreadyRegistered","inputs":[{"name":"provider","type":"address","internalType":"address"}]},{"type":"error","name":"ProviderNotRegistered","inputs":[{"name":"provider","type":"address","internalType":"address"}]},{"type":"error","name":"ProvisionManagerInvalidRange","inputs":[{"name":"min","type":"uint256","internalType":"uint256"},{"name":"max","type":"uint256","internalType":"uint256"}]},{"type":"error","name":"ProvisionManagerInvalidValue","inputs":[{"name":"message","type":"bytes","internalType":"bytes"},{"name":"value","type":"uint256","internalType":"uint256"},{"name":"min","type":"uint256","internalType":"uint256"},{"name":"max","type":"uint256","internalType":"uint256"}]},{"type":"error","name":"ProvisionManagerNotAuthorized","inputs":[{"name":"serviceProvider","type":"address","internalType":"address"},{"name":"caller","type":"address","internalType":"address"}]},{"type":"error","name":"ProvisionManagerProvisionNotFound","inputs":[{"name":"serviceProvider","type":"address","internalType":"address"}]},{"type":"error","name":"ProvisionTrackerInsufficientTokens","inputs":[{"name":"tokensAvailable","type":"uint256","internalType":"uint256"},{"name":"tokensRequired","type":"uint256","internalType":"uint256"}]},{"type":"error","name":"RegistrationNotFound","inputs":[{"name":"provider","type":"address","internalType":"address"},{"name":"chainId","type":"uint64","internalType":"uint64"},{"name":"tier","type":"uint8","internalType":"enum IRPCDataService.CapabilityTier"}]},{"type":"error","name":"SlashNotImplemented","inputs":[]},{"type":"error","name":"ThawingPeriodTooShort","inputs":[{"name":"required","type":"uint64","internalType":"uint64"},{"name":"actual","type":"uint64","internalType":"uint64"}]}],"bytecode":{"object":"0x6101e0604052348015610010575f5ffd5b5060405161382d38038061382d83398101604081905261002f91610797565b8280856001600160a01b03811661006057604051631e4fbdf760e01b81525f60048201526024015b60405180910390fd5b610069816103ba565b506001600160a01b0381166100ae5760405163218f5add60e11b815260206004820152600a60248201526921b7b73a3937b63632b960b11b6044820152606401610057565b6001600160a01b0381166101005260408051808201909152600a81526923b930b8342a37b5b2b760b11b60208201526100e690610409565b6001600160a01b03166080526040805180820190915260078152665374616b696e6760c81b602082015261011990610409565b6001600160a01b031660a05260408051808201909152600d81526c47726170685061796d656e747360981b602082015261015290610409565b6001600160a01b031660c05260408051808201909152600e81526d5061796d656e7473457363726f7760901b602082015261018c90610409565b6001600160a01b031660e05260408051808201909152600c81526b22b837b1b426b0b730b3b2b960a11b60208201526101c490610409565b6001600160a01b03166101205260408051808201909152600e81526d2932bbb0b93239a6b0b730b3b2b960911b60208201526101ff90610409565b6001600160a01b0316610140526040805180820190915260118152704772617068546f6b656e4761746577617960781b602082015261023d90610409565b6001600160a01b03166101605260408051808201909152600f81526e23b930b834283937bc3ca0b236b4b760891b602082015261027990610409565b6001600160a01b03166101805260408051808201909152600881526721bab930ba34b7b760c11b60208201526102ae90610409565b6001600160a01b039081166101a08190526101005160a05160805160c05160e05161012051610140516101605161018051604051988b169a9788169996909716977fef5021414834d86e36470f5c1cecf6544fb2bb723f2ca51a4c86fcd8c5919a43976103589790916001600160a01b03978816815295871660208701529386166040860152918516606085015284166080840152831660a083015290911660c082015260e00190565b60405180910390a450506001600160a01b0382166101c05261038569054b40b1f852bda000005f196104b4565b610399621275006001600160401b0361052a565b6103a65f620f42406105d6565b6103b18160016106c8565b5050505061083d565b5f80546001600160a01b038381166001600160a01b0319831681178455604051919092169283917f8be0079c531659141344cd1fd0a4f28419497f9722a3daafe3b4186f6b6457e09190a35050565b5f5f610100516001600160a01b031663f7641a5e84805190602001206040518263ffffffff1660e01b815260040161044391815260200190565b602060405180830381865afa15801561045e573d5f5f3e3d5ffd5b505050506040513d601f19601f8201168201806040525081019061048291906107e8565b9050826001600160a01b0382166104ad5760405163218f5add60e11b81526004016100579190610808565b5092915050565b8181808211156104e05760405163ccccdafb60e01b815260048101929092526024820152604401610057565b50506001829055600281905560408051838152602081018390527f90699b8b4bf48918fea1129c85f9bc7b51285df7ecc982910813c7805f56884991015b60405180910390a15050565b81816001600160401b03808216908316111561056c5760405163ccccdafb60e01b81526001600160401b03928316600482015291166024820152604401610057565b5050600380546001600160401b038481166001600160801b0319909216821768010000000000000000918516918202179092556040805191825260208201929092527f2867e04c500e438761486b78021d4f9eb97c77ff45d10c1183f5583ba4cbf7d1910161051e565b818163ffffffff80821690831611156106125760405163ccccdafb60e01b815263ffffffff928316600482015291166024820152604401610057565b508290508163ffffffff8116620f424010156106515760405163ccccdafb60e01b815263ffffffff928316600482015291166024820152604401610057565b505060038054600160801b600160c01b031916600160801b63ffffffff85811691820263ffffffff60a01b191692909217600160a01b928516928302179092556040805192835260208301919091527f2fe5a7039987697813605cc0b9d6db7aab575408e3fc59e8a457bef8d7bc0a36910161051e565b6001600160a01b0382165f908152609d60205260409020548290829060ff16151581151461071c57604051635e67e54b60e01b81526001600160a01b03909216600483015215156024820152604401610057565b50506001600160a01b0382165f818152609d6020908152604091829020805460ff191685151590811790915591519182527fa95bac2f3df0d40e8278281c1d39d53c60e4f2bf3550ca5665738d0916e89789910160405180910390a25050565b80516001600160a01b0381168114610792575f5ffd5b919050565b5f5f5f5f608085870312156107aa575f5ffd5b6107b38561077c565b93506107c16020860161077c565b92506107cf6040860161077c565b91506107dd6060860161077c565b905092959194509250565b5f602082840312156107f8575f5ffd5b6108018261077c565b9392505050565b602081525f82518060208401528060208501604085015e5f604082850101526040601f19601f83011684010191505092915050565b60805160a05160c05160e05161010051610120516101405161016051610180516101a0516101c051612f5a6108d35f395f61101401525f50505f50505f50505f50505f50505f50505f50505f50505f818161078f01528181610bd0015281816111080152818161135d015281816114350152818161158501528181611a5301528181611b8f0152611c5b01525f5050612f5a5ff3fe608060405234801561000f575f5ffd5b5060043610610213575f3560e01c806388d4baff1161011f578063cb8347fe116100a9578063dedf672611610079578063dedf67261461058d578063e52e697b146105a0578063e7747ccb146105a8578063eff0f592146105ca578063f2fde38b146105fe575f5ffd5b8063cb8347fe14610535578063cbe5f3f214610548578063cbf50bb614610567578063ce0fc0cc1461057a575f5ffd5b8063a55f3049116100ef578063a55f3049146104af578063b15d2a2c146104d1578063b3975736146104e4578063b9983283146104f7578063c3c5a5471461050a575f5ffd5b806388d4baff1461044b5780638a25ac231461046a5780638da5cb5b1461047d5780639384e0781461048d575f5ffd5b8063548d496f116101a0578063715018a611610170578063715018a6146103e357806371ce020a146103eb5780638180083b14610413578063819ba366146104265780638456cb5914610443575f5ffd5b8063548d496f1461035d5780635c975abb146103a05780635d21ef26146103bd5780636ccec5b8146103d0575f5ffd5b806324b8fbf6116101e657806324b8fbf6146102f5578063331362021461030a5780633f4ba83a1461031d57806345f5448514610325578063482468b714610338575f5ffd5b806307e736d81461021757806313c474c91461025c57806316049e9c146102b05780631ebb7c30146102d0575b5f5ffd5b61023f610225366004612476565b60a06020525f90815260409020546001600160a01b031681565b6040516001600160a01b0390911681526020015b60405180910390f35b61029061026a366004612476565b606a6020525f908152604090208054600182015460028301546003909301549192909184565b604080519485526020850193909352918301526060820152608001610253565b6102c36102be366004612476565b610611565b60405161025391906124ee565b600354600160c01b900463ffffffff1660405163ffffffff9091168152602001610253565b6103086103033660046125ce565b61076e565b005b61030861031836600461263d565b610955565b6103086109bd565b610308610333366004612658565b610a03565b610340610a10565b6040805163ffffffff938416815292909116602083015201610253565b61038961036b366004612658565b609e6020525f90815260409020805460019091015460ff9091169082565b604080519215158352602083019190915201610253565b5f54600160a01b900460ff165b6040519015158152602001610253565b6103086103cb36600461266f565b610a3b565b6103086103de366004612476565b610ae5565b610308610b86565b6103f3610b97565b604080516001600160401b03938416815292909116602083015201610253565b6103086104213660046125ce565b610bb7565b61042e610e4d565b60408051928352602083019190915201610253565b610308610e5c565b61045c69054b40b1f852bda0000081565b604051908152602001610253565b610308610478366004612658565b610ea0565b5f546001600160a01b031661023f565b6103ad61049b366004612476565b609d6020525f908152604090205460ff1681565b6104b96212750081565b6040516001600160401b039091168152602001610253565b61045c6104df36600461268f565b610ee5565b6103086104f23660046125ce565b6110ef565b61045c610505366004612476565b611278565b6103ad610518366004612476565b6001600160a01b03165f908152609f602052604090205460ff1690565b6103086105433660046125ce565b6112e4565b61045c610556366004612476565b60686020525f908152604090205481565b610308610575366004612658565b6112fd565b6103086105883660046125ce565b611344565b61030861059b3660046125ce565b611414565b61045c600581565b6103ad6105b6366004612476565b609f6020525f908152604090205460ff1681565b6102906105d8366004612658565b60696020525f908152604090208054600182015460028301546003909301549192909184565b61030861060c366004612476565b6117cf565b6001600160a01b0381165f90815260a160209081526040808320805482518185028101850190935280835260609492939192909184015b82821015610763575f8481526020908190206040805160808101909152600385810290920180546001600160401b03811683529193909290840191600160401b900460ff169081111561069d5761069d612498565b60038111156106ae576106ae612498565b81526020016001820180546106c2906126f2565b80601f01602080910402602001604051908101604052809291908181526020018280546106ee906126f2565b80156107395780601f1061071057610100808354040283529160200191610739565b820191905f5260205f20905b81548152906001019060200180831161071c57829003601f168201915b50505091835250506002919091015460ff1615156020918201529082526001929092019101610648565b505050509050919050565b610776611809565b604051637c145cc760e01b815283906001600160a01b037f00000000000000000000000000000000000000000000000000000000000000001690637c145cc7906107c89084903090339060040161272a565b602060405180830381865afa1580156107e3573d5f5f3e3d5ffd5b505050506040513d601f19601f82011682018060405250810190610807919061274d565b813390916108405760405163cc5d3c8b60e01b81526001600160a01b039283166004820152911660248201526044015b60405180910390fd5b50506001600160a01b0384165f908152609f602052604090205460ff161561088657604051633a7bc11560e11b81526001600160a01b0385166004820152602401610837565b61088f84611833565b610899845f61184c565b5f80806108a88587018761287c565b6001600160a01b03808b165f908152609f60205260409020805460ff1916600117905592955090935091508116156108e057806108e2565b865b6001600160a01b038881165f81815260a060205260409081902080546001600160a01b031916949093169390931790915590517f6b1aa1e318762b7b04f60cd1d318222049b2c70c1c7daad0af5276d5f3b2525a9061094490869086906128f2565b60405180910390a250505050505050565b61095d611867565b60405162461bcd60e51b815260206004820152602f60248201527f7365744d696e54686177696e67506572696f643a206e6f7420696d706c656d6560448201526e6e74656420696e205068617365203160881b6064820152608401610837565b335f818152609d602052604090205460ff166109f8576040516372e3ef9760e01b81526001600160a01b039091166004820152602401610837565b50610a01611893565b565b610a0d33826118e7565b50565b5f5f610a3360035463ffffffff600160801b8204811692600160a01b9092041690565b915091509091565b610a43611867565b6040805180820190915260018152602081018215610a615782610a6d565b69054b40b1f852bda000005b90525f838152609e602090815260409091208251815460ff1916901515178155910151600190910155817f1e37627b4601dccb350d9e7777d66e0de14589ca12f6131794359ab36397e9098215610ac45782610ad0565b69054b40b1f852bda000005b60405190815260200160405180910390a25050565b335f908152609f602052604090205460ff16610b1657604051631196593d60e11b8152336004820152602401610837565b5f6001600160a01b03821615610b2c5781610b2e565b335b335f81815260a0602052604080822080546001600160a01b0319166001600160a01b0386169081179091559051939450927e3215dc05a2fc4e6a1e2c2776311d207c730ee51085aae221acc5cbe6fb55c19190a35050565b610b8e611867565b610a015f61199d565b5f5f610a336003546001600160401b0380821692600160401b9092041690565b604051637c145cc760e01b815283906001600160a01b037f00000000000000000000000000000000000000000000000000000000000000001690637c145cc790610c099084903090339060040161272a565b602060405180830381865afa158015610c24573d5f5f3e3d5ffd5b505050506040513d601f19601f82011682018060405250810190610c48919061274d565b81339091610c7c5760405163cc5d3c8b60e01b81526001600160a01b03928316600482015291166024820152604401610837565b505f905080610c8d8486018661292f565b6001600160a01b0388165f90815260a1602052604081209294509092505b8154811015610e1357836001600160401b0316828281548110610cd057610cd0612962565b5f9182526020909120600390910201546001600160401b0316148015610d3657508260ff16828281548110610d0757610d07612962565b5f918252602090912060039182020154600160401b900460ff1690811115610d3157610d31612498565b60ff16145b8015610d665750818181548110610d4f57610d4f612962565b5f91825260209091206002600390920201015460ff165b15610e0b575f828281548110610d7e57610d7e612962565b905f5260205f2090600302016002015f6101000a81548160ff021916908315150217905550836001600160401b0316886001600160a01b03167f89369fc9c40b2df486c99a1564dc6ad8bb4668aebf40a8ea71e20b45626e44268560ff166003811115610ded57610ded612498565b604051610dfa9190612976565b60405180910390a350505050610e47565b600101610cab565b5086838360ff166003811115610e2b57610e2b612498565b60405163803b450b60e01b815260040161083793929190612984565b50505050565b5f5f610a336001546002549091565b335f818152609d602052604090205460ff16610e97576040516372e3ef9760e01b81526001600160a01b039091166004820152602401610837565b50610a016119ec565b610ea8611867565b5f7f1e37627b4601dccb350d9e7777d66e0de14589ca12f6131794359ab36397e90982604051610eda91815260200190565b60405180910390a250565b5f610eee611809565b5f846002811115610f0157610f01612498565b14610f1f57604051630e5525c360e31b815260040160405180910390fd5b6001600160a01b0385165f908152609f602052604090205460ff16610f6257604051631196593d60e11b81526001600160a01b0386166004820152602401610837565b5f80610f70848601866129c6565b91509150866001600160a01b0316825f0151604001516001600160a01b031614610fea5760405162461bcd60e51b815260206004820152602560248201527f52504344617461536572766963653a205241562070726f7669646572206d69736044820152640dac2e8c6d60db1b6064820152608401610837565b610ff4875f6118e7565b6001600160a01b038781165f90815260a0602090815260408083205490517f000000000000000000000000000000000000000000000000000000000000000085169463692209ce948c9461104e948a949293169101612af5565b604051602081830303815290604052846040518463ffffffff1660e01b815260040161107c93929190612bbd565b6020604051808303815f875af1158015611098573d5f5f3e3d5ffd5b505050506040513d601f19601f820116820180604052508101906110bc9190612bf5565b925082156110e5576110e5876110d3600586612c20565b6110e06212750042612c37565b611a2e565b5050949350505050565b604051637c145cc760e01b815283906001600160a01b037f00000000000000000000000000000000000000000000000000000000000000001690637c145cc7906111419084903090339060040161272a565b602060405180830381865afa15801561115c573d5f5f3e3d5ffd5b505050506040513d601f19601f82011682018060405250810190611180919061274d565b813390916111b45760405163cc5d3c8b60e01b81526001600160a01b03928316600482015291166024820152604401610837565b50506001600160a01b0384165f908152609f602052604090205460ff166111f957604051631196593d60e11b81526001600160a01b0385166004820152602401610837565b5f61120385611278565b111561122d5760405163f868322d60e01b81526001600160a01b0385166004820152602401610837565b6001600160a01b0384165f818152609f6020526040808220805460ff19169055517ff04091b4a187e321a42001e46961e45b6a75b203fc6fb766b7e05505f6080abb9190a250505050565b6001600160a01b0381165f90815260a160205260408120815b81548110156112dd578181815481106112ac576112ac612962565b5f91825260209091206002600390920201015460ff16156112d557826112d181612c4a565b9350505b600101611291565b5050919050565b60405163b8257d0560e01b815260040160405180910390fd5b611305611867565b5f818152609e6020526040808220805460ff191690555182917f11a9d1a77f76361ed131c19b1dc5758504c51dbde2e49fc973a0ef9577ad13d591a250565b604051637c145cc760e01b815283906001600160a01b037f00000000000000000000000000000000000000000000000000000000000000001690637c145cc7906113969084903090339060040161272a565b602060405180830381865afa1580156113b1573d5f5f3e3d5ffd5b505050506040513d601f19601f820116820180604052508101906113d5919061274d565b813390916114095760405163cc5d3c8b60e01b81526001600160a01b03928316600482015291166024820152604401610837565b5050610e4784611b82565b61141c611809565b604051637c145cc760e01b815283906001600160a01b037f00000000000000000000000000000000000000000000000000000000000000001690637c145cc79061146e9084903090339060040161272a565b602060405180830381865afa158015611489573d5f5f3e3d5ffd5b505050506040513d601f19601f820116820180604052508101906114ad919061274d565b813390916114e15760405163cc5d3c8b60e01b81526001600160a01b03928316600482015291166024820152604401610837565b50506001600160a01b0384165f908152609f602052604090205460ff1661152657604051631196593d60e11b81526001600160a01b0385166004820152602401610837565b5f808061153585870187612c62565b6001600160401b0383165f908152609e60205260409020805493965091945092509060ff166115825760405163264e42cf60e01b81526001600160401b0385166004820152602401610837565b5f7f00000000000000000000000000000000000000000000000000000000000000006040516312ecc4bf60e11b81526001600160a01b038b8116600483015230602483015291909116906325d9897e9060440161014060405180830381865afa1580156115f1573d5f5f3e3d5ffd5b505050506040513d601f19601f820116820180604052508101906116159190612cdb565b90508160010154815f0151101561164f57600182015481516040516307f850b160e21b815260048101929092526024820152604401610837565b60a15f8a6001600160a01b03166001600160a01b031681526020019081526020015f206040518060800160405280876001600160401b031681526020018660ff1660038111156116a1576116a1612498565b60038111156116b2576116b2612498565b8152602080820187905260016040909201829052835491820184555f938452928390208251600392830290910180546001600160401b0390921667ffffffffffffffff19831681178255948401519394909392849268ffffffffffffffffff191690911790600160401b90849081111561172e5761172e612498565b0217905550604082015160018201906117479082612dc6565b50606091909101516002909101805460ff19169115159190911790556001600160401b0385166001600160a01b038a167fc1224e13efef3ce78e715155ae555a721a806d82ea1122656f567b46d207cd7160ff871660038111156117ad576117ad612498565b866040516117bc929190612e80565b60405180910390a3505050505050505050565b6117d7611867565b6001600160a01b03811661180057604051631e4fbdf760e01b81525f6004820152602401610837565b610a0d8161199d565b5f54600160a01b900460ff1615610a015760405163d93c066560e01b815260040160405180910390fd5b5f61183d82611c09565b905061184881611d30565b5050565b5f61185683611c09565b90506118628183611d6e565b505050565b5f546001600160a01b03163314610a015760405163118cdaa760e01b8152336004820152602401610837565b61189b611e83565b5f805460ff60a01b191690557f5db9ee0a495bf2e6ff9c91a7834c1ba4fdd244a5e8aa4e537bd38aeae4b073aa335b6040516001600160a01b03909116815260200160405180910390a1565b6001600160a01b0382165f818152606a6020908152604080832081519283018490528282019490945280518083038201815260609092019052819061193a908490611eac90611ec090611fb49089611fd8565b91509150846001600160a01b03167f13f3fa9f0e54af1af76d8b5d11c3973d7c2aed6312b61efff2f7b49d73ad67eb838380602001905181019061197e9190612bf5565b6040805192835260208301919091520160405180910390a25050505050565b5f80546001600160a01b038381166001600160a01b0319831681178455604051919092169283917f8be0079c531659141344cd1fd0a4f28419497f9722a3daafe3b4186f6b6457e09190a35050565b6119f4611809565b5f805460ff60a01b1916600160a01b1790557f62e78cea01bee320cd4e420270b5ea74000d11b0c9f74754ebdbfc544b05a2586118ca3390565b815f03611a4e57604051638f4c63d960e01b815260040160405180910390fd5b611a937f0000000000000000000000000000000000000000000000000000000000000000600354606891908690869063ffffffff600160c01b90910481169061208e16565b6001600160a01b0383165f908152606a602052604081206002810154909190611abd90869061219b565b604080516080810182528681524260208083019182528284018881525f60608501818152878252606990935294909420925183559051600183015591516002820155905160039182015583015490915015611b2b5760018201545f9081526069602052604090206003018190555b611b3582826121ed565b604080518581526020810185905282916001600160a01b038816917f5d9e2c5278e41138269f5f980cfbea016d8c59816754502abc4d2f87aaea987f910160405180910390a35050505050565b611b8d81600161184c565b7f0000000000000000000000000000000000000000000000000000000000000000604051631d3c5b9960e11b81526001600160a01b0383811660048301529190911690633a78b732906024015f604051808303815f87803b158015611bf0575f5ffd5b505af1158015611c02573d5f5f3e3d5ffd5b5050505050565b60408051610140810182525f80825260208201819052918101829052606081018290526080810182905260a0810182905260c0810182905260e0810182905261010081018290526101208101829052907f00000000000000000000000000000000000000000000000000000000000000006040516312ecc4bf60e11b81526001600160a01b03858116600483015230602483015291909116906325d9897e9060440161014060405180830381865afa158015611cc7573d5f5f3e3d5ffd5b505050506040513d601f19601f82011682018060405250810190611ceb9190612cdb565b90508060a001516001600160401b03165f14158390611d2957604051637b3c09bf60e01b81526001600160a01b039091166004820152602401610837565b5092915050565b60208101518151610a0d91611d4491612e9f565b60015460025460405180604001604052806006815260200165746f6b656e7360d01b81525061227d565b5f5f611d8e6003546001600160401b0380821692600160401b9092041690565b915091505f83611da2578460800151611da8565b8460e001515b9050611df6816001600160401b0316846001600160401b0316846001600160401b03166040518060400160405280600d81526020016c1d1a185dda5b99d4195c9a5bd9609a1b81525061227d565b5f5f611e1960035463ffffffff600160801b8204811692600160a01b9092041690565b915091505f86611e2d578760600151611e33565b8760c001515b9050611e798163ffffffff168463ffffffff168463ffffffff166040518060400160405280600e81526020016d1b585e15995c9a599a595c90dd5d60921b81525061227d565b5050505050505050565b5f54600160a01b900460ff16610a0157604051638dfc202b60e01b815260040160405180910390fd5b5f9081526069602052604090206003015490565b5f60605f611ecd856122b1565b90504281604001511115611ef457505060408051602081019091525f815260019150611fad565b5f5f85806020019051810190611f0a9190612eb2565b84519193509150611f1f906068908390612337565b82516040808501518151928352602083015288916001600160a01b038416917f4c06b68820628a39c787d2db1faa0eeacd7b9474847b198b1e871fe6e5b93f44910160405180910390a38251611f759083612c37565b6040805160208101929092526001600160a01b0383169082015260600160405160208183030381529060405295505f86945094505050505b9250929050565b5f908152606960205260408120818155600181018290556002810182905560030155565b5f6060876003015483111561200057604051634a411b9d60e11b815260040160405180910390fd5b5f831561200d5783612013565b88600301545b89549094505b801580159061202757505f85115b1561207f575f5f61203c83898c63ffffffff16565b91509150811561204d57505061207f565b96508661205b8c8c8b6123b9565b92508661206781612ee1565b975050838061207590612c4a565b9450505050612019565b50989397509295505050505050565b8115611c02576001600160a01b0383165f908152602086905260408120546120b7908490612c37565b60405163872d048960e01b81526001600160a01b03868116600483015230602483015263ffffffff851660448301529192505f9187169063872d048990606401602060405180830381865afa158015612112573d5f5f3e3d5ffd5b505050506040513d601f19601f820116820180604052508101906121369190612bf5565b905080828181111561216457604051635f8ec70960e01b815260048101929092526024820152604401610837565b50506001600160a01b0385165f908152602088905260408120805486929061218d908490612c37565b909155505050505050505050565b6040516bffffffffffffffffffffffff1930606090811b8216602084015284901b166034820152604881018290525f906068016040516020818303038152906040528051906020012090505b92915050565b612710826003015410612213576040516303a8c56b60e61b815260040160405180910390fd5b8061223157604051638f4a893d60e01b815260040160405180910390fd5b60018083018290556002830180545f9061224c908490612c37565b909155505060038201545f03612260578082555b6001826003015f8282546122749190612c37565b90915550505050565b612288848484612439565b8185858590919293611e7957604051630871e13d60e01b81526004016108379493929190612ef6565b6122d860405180608001604052805f81526020015f81526020015f81526020015f81525090565b5f8281526069602090815260409182902082516080810184528154815260018201549281018390526002820154938101939093526003015460608301528390611d295760405163107349a960e21b815260040161083791815260200190565b805f0361234357505050565b6001600160a01b0382165f90815260208490526040902054818082101561238657604051635f8ec70960e01b815260048101929092526024820152604401610837565b50506001600160a01b0382165f90815260208490526040812080548392906123af908490612e9f565b9091555050505050565b5f5f8460030154116123de5760405163ddaf8f2160e01b815260040160405180910390fd5b5f6123ef855f01548563ffffffff16565b9050612401855f01548463ffffffff16565b6001856003015f8282546124159190612e9f565b909155505080855560038501545f0361242f575f60018601555b5050915492915050565b5f82841015801561244a5750818411155b949350505050565b6001600160a01b0381168114610a0d575f5ffd5b803561247181612452565b919050565b5f60208284031215612486575f5ffd5b813561249181612452565b9392505050565b634e487b7160e01b5f52602160045260245ffd5b600481106124bc576124bc612498565b9052565b5f81518084528060208401602086015e5f602082860101526020601f19601f83011685010191505092915050565b5f602082016020835280845180835260408501915060408160051b8601019250602086015f5b8281101561258557603f1987860301845281516001600160401b038151168652602081015161254660208801826124ac565b5060408101516080604088015261256060808801826124c0565b6060928301511515979092019690965294506020938401939190910190600101612514565b50929695505050505050565b5f5f83601f8401126125a1575f5ffd5b5081356001600160401b038111156125b7575f5ffd5b602083019150836020828501011115611fad575f5ffd5b5f5f5f604084860312156125e0575f5ffd5b83356125eb81612452565b925060208401356001600160401b03811115612605575f5ffd5b61261186828701612591565b9497909650939450505050565b6001600160401b0381168114610a0d575f5ffd5b80356124718161261e565b5f6020828403121561264d575f5ffd5b81356124918161261e565b5f60208284031215612668575f5ffd5b5035919050565b5f5f60408385031215612680575f5ffd5b50508035926020909101359150565b5f5f5f5f606085870312156126a2575f5ffd5b84356126ad81612452565b93506020850135600381106126c0575f5ffd5b925060408501356001600160401b038111156126da575f5ffd5b6126e687828801612591565b95989497509550505050565b600181811c9082168061270657607f821691505b60208210810361272457634e487b7160e01b5f52602260045260245ffd5b50919050565b6001600160a01b0393841681529183166020830152909116604082015260600190565b5f6020828403121561275d575f5ffd5b81518015158114612491575f5ffd5b634e487b7160e01b5f52604160045260245ffd5b604080519081016001600160401b03811182821017156127a2576127a261276c565b60405290565b60405160e081016001600160401b03811182821017156127a2576127a261276c565b60405161014081016001600160401b03811182821017156127a2576127a261276c565b5f82601f8301126127fc575f5ffd5b8135602083015f5f6001600160401b0384111561281b5761281b61276c565b50604051601f19601f85018116603f011681018181106001600160401b03821117156128495761284961276c565b604052838152905080828401871015612860575f5ffd5b838360208301375f602085830101528094505050505092915050565b5f5f5f6060848603121561288e575f5ffd5b83356001600160401b038111156128a3575f5ffd5b6128af868287016127ed565b93505060208401356001600160401b038111156128ca575f5ffd5b6128d6868287016127ed565b92505060408401356128e781612452565b809150509250925092565b604081525f61290460408301856124c0565b828103602084015261291681856124c0565b95945050505050565b803560ff81168114612471575f5ffd5b5f5f60408385031215612940575f5ffd5b823561294b8161261e565b91506129596020840161291f565b90509250929050565b634e487b7160e01b5f52603260045260245ffd5b602081016121e782846124ac565b6001600160a01b03841681526001600160401b03831660208201526060810161244a60408301846124ac565b80356001600160801b0381168114612471575f5ffd5b5f5f604083850312156129d7575f5ffd5b82356001600160401b038111156129ec575f5ffd5b8301604081860312156129fd575f5ffd5b612a05612780565b81356001600160401b03811115612a1a575f5ffd5b820160e08188031215612a2b575f5ffd5b612a336127a8565b81358152612a4360208301612466565b6020820152612a5460408301612466565b6040820152612a6560608301612466565b6060820152612a7660808301612632565b6080820152612a8760a083016129b0565b60a082015260c08201356001600160401b03811115612aa4575f5ffd5b612ab0898285016127ed565b60c08301525082525060208201356001600160401b03811115612ad1575f5ffd5b612add878285016127ed565b60208381019190915291979590910135955050505050565b606080825284516040838301819052815160a085015260208201516001600160a01b0390811660c086015290820151811660e08501529181015190911661010083015260808101516001600160401b0381166101208401525f91905060a08101516001600160801b0381166101408501525060c0015160e0610160840152612b816101808401826124c0565b90506020860151605f19848303016080850152612b9e82826124c0565b9250505083602083015261244a60408301846001600160a01b03169052565b5f60038510612bce57612bce612498565b84825260606020830152612be560608301856124c0565b9050826040830152949350505050565b5f60208284031215612c05575f5ffd5b5051919050565b634e487b7160e01b5f52601160045260245ffd5b80820281158282048414176121e7576121e7612c0c565b808201808211156121e7576121e7612c0c565b5f60018201612c5b57612c5b612c0c565b5060010190565b5f5f5f60608486031215612c74575f5ffd5b8335612c7f8161261e565b9250612c8d6020850161291f565b915060408401356001600160401b03811115612ca7575f5ffd5b612cb3868287016127ed565b9150509250925092565b805163ffffffff81168114612471575f5ffd5b80516124718161261e565b5f610140828403128015612ced575f5ffd5b50612cf66127ca565b825181526020808401519082015260408084015190820152612d1a60608401612cbd565b6060820152612d2b60808401612cd0565b6080820152612d3c60a08401612cd0565b60a0820152612d4d60c08401612cbd565b60c0820152612d5e60e08401612cd0565b60e08201526101008381015190820152610120928301519281019290925250919050565b601f82111561186257805f5260205f20601f840160051c81016020851015612da75750805b601f840160051c820191505b81811015611c02575f8155600101612db3565b81516001600160401b03811115612ddf57612ddf61276c565b612df381612ded84546126f2565b84612d82565b6020601f821160018114612e25575f8315612e0e5750848201515b5f19600385901b1c1916600184901b178455611c02565b5f84815260208120601f198516915b82811015612e545787850151825560209485019460019092019101612e34565b5084821015612e7157868401515f19600387901b60f8161c191681555b50505050600190811b01905550565b612e8a81846124ac565b604060208201525f61244a60408301846124c0565b818103818111156121e7576121e7612c0c565b5f5f60408385031215612ec3575f5ffd5b82516020840151909250612ed681612452565b809150509250929050565b5f81612eef57612eef612c0c565b505f190190565b608081525f612f0860808301876124c0565b602083019590955250604081019290925260609091015291905056fea264697066735822122018eb34b7ac0a71ba39110499b74cc3a208326ba3baff04ed5581edef969e7d9c64736f6c634300081b0033","linkReferences":{}},"methodIdentifiers":{"DEFAULT_MIN_PROVISION()":"88d4baff","MIN_THAWING_PERIOD()":"a55f3049","STAKE_TO_FEES_RATIO()":"e52e697b","acceptProvisionPendingParameters(address,bytes)":"ce0fc0cc","activeRegistrationCount(address)":"b9983283","addChain(uint256,uint256)":"5d21ef26","claims(bytes32)":"eff0f592","claimsLists(address)":"13c474c9","collect(address,uint8,bytes)":"b15d2a2c","deregister(address,bytes)":"b3975736","feesProvisionTracker(address)":"cbe5f3f2","getChainRegistrations(address)":"16049e9c","getDelegationRatio()":"1ebb7c30","getProvisionTokensRange()":"819ba366","getThawingPeriodRange()":"71ce020a","getVerifierCutRange()":"482468b7","isRegistered(address)":"c3c5a547","owner()":"8da5cb5b","pause()":"8456cb59","pauseGuardians(address)":"9384e078","paused()":"5c975abb","paymentsDestination(address)":"07e736d8","register(address,bytes)":"24b8fbf6","registeredProviders(address)":"e7747ccb","releaseStake(uint256)":"45f54485","removeChain(uint256)":"cbf50bb6","renounceOwnership()":"715018a6","setDefaultMinProvision(uint256)":"8a25ac23","setMinThawingPeriod(uint64)":"33136202","setPaymentsDestination(address)":"6ccec5b8","slash(address,bytes)":"cb8347fe","startService(address,bytes)":"dedf6726","stopService(address,bytes)":"8180083b","supportedChains(uint256)":"548d496f","transferOwnership(address)":"f2fde38b","unpause()":"3f4ba83a"},"id":95}