{"abi":[{"type":"constructor","inputs":[{"name":"controller","type":"address","internalType":"address"},{"name":"protocolPaymentCut","type":"uint256","internalType":"uint256"}],"stateMutability":"nonpayable"},{"type":"function","name":"PROTOCOL_PAYMENT_CUT","inputs":[],"outputs":[{"name":"","type":"uint256","internalType":"uint256"}],"stateMutability":"view"},{"type":"function","name":"collect","inputs":[{"name":"paymentType","type":"uint8","internalType":"enum IGraphPayments.PaymentTypes"},{"name":"receiver","type":"address","internalType":"address"},{"name":"tokens","type":"uint256","internalType":"uint256"},{"name":"dataService","type":"address","internalType":"address"},{"name":"dataServiceCut","type":"uint256","internalType":"uint256"},{"name":"receiverDestination","type":"address","internalType":"address"}],"outputs":[],"stateMutability":"nonpayable"},{"type":"function","name":"initialize","inputs":[],"outputs":[],"stateMutability":"nonpayable"},{"type":"function","name":"multicall","inputs":[{"name":"data","type":"bytes[]","internalType":"bytes[]"}],"outputs":[{"name":"results","type":"bytes[]","internalType":"bytes[]"}],"stateMutability":"nonpayable"},{"type":"event","name":"GraphDirectoryInitialized","inputs":[{"name":"graphToken","type":"address","indexed":true,"internalType":"address"},{"name":"graphStaking","type":"address","indexed":true,"internalType":"address"},{"name":"graphPayments","type":"address","indexed":false,"internalType":"address"},{"name":"graphEscrow","type":"address","indexed":false,"internalType":"address"},{"name":"graphController","type":"address","indexed":true,"internalType":"address"},{"name":"graphEpochManager","type":"address","indexed":false,"internalType":"address"},{"name":"graphRewardsManager","type":"address","indexed":false,"internalType":"address"},{"name":"graphTokenGateway","type":"address","indexed":false,"internalType":"address"},{"name":"graphProxyAdmin","type":"address","indexed":false,"internalType":"address"},{"name":"graphCuration","type":"address","indexed":false,"internalType":"address"}],"anonymous":false},{"type":"event","name":"GraphPaymentCollected","inputs":[{"name":"paymentType","type":"uint8","indexed":true,"internalType":"enum IGraphPayments.PaymentTypes"},{"name":"payer","type":"address","indexed":true,"internalType":"address"},{"name":"receiver","type":"address","indexed":false,"internalType":"address"},{"name":"dataService","type":"address","indexed":true,"internalType":"address"},{"name":"tokens","type":"uint256","indexed":false,"internalType":"uint256"},{"name":"tokensProtocol","type":"uint256","indexed":false,"internalType":"uint256"},{"name":"tokensDataService","type":"uint256","indexed":false,"internalType":"uint256"},{"name":"tokensDelegationPool","type":"uint256","indexed":false,"internalType":"uint256"},{"name":"tokensReceiver","type":"uint256","indexed":false,"internalType":"uint256"},{"name":"receiverDestination","type":"address","indexed":false,"internalType":"address"}],"anonymous":false},{"type":"event","name":"Initialized","inputs":[{"name":"version","type":"uint64","indexed":false,"internalType":"uint64"}],"anonymous":false},{"type":"error","name":"AddressEmptyCode","inputs":[{"name":"target","type":"address","internalType":"address"}]},{"type":"error","name":"FailedCall","inputs":[]},{"type":"error","name":"GraphDirectoryInvalidZeroAddress","inputs":[{"name":"contractName","type":"bytes","internalType":"bytes"}]},{"type":"error","name":"GraphPaymentsInvalidCut","inputs":[{"name":"cut","type":"uint256","internalType":"uint256"}]},{"type":"error","name":"GraphPaymentsInvalidProtocolPaymentCut","inputs":[{"name":"protocolPaymentCut","type":"uint256","internalType":"uint256"}]},{"type":"error","name":"InvalidInitialization","inputs":[]},{"type":"error","name":"NotInitializing","inputs":[]},{"type":"error","name":"PPMMathInvalidMulPPM","inputs":[{"name":"a","type":"uint256","internalType":"uint256"},{"name":"b","type":"uint256","internalType":"uint256"}]},{"type":"error","name":"PPMMathInvalidPPM","inputs":[{"name":"value","type":"uint256","internalType":"uint256"}]}],"bytecode":{"object":"0x6101e0604052348015610010575f5ffd5b506040516115a03803806115a083398101604081905261002f916104e9565b816001600160a01b0381166100795760405163218f5add60e11b815260206004820152600a60248201526921b7b73a3937b63632b960b11b60448201526064015b60405180910390fd5b6001600160a01b0381166101005260408051808201909152600a81526923b930b8342a37b5b2b760b11b60208201526100b190610371565b6001600160a01b03166080526040805180820190915260078152665374616b696e6760c81b60208201526100e490610371565b6001600160a01b031660a05260408051808201909152600d81526c47726170685061796d656e747360981b602082015261011d90610371565b6001600160a01b031660c05260408051808201909152600e81526d5061796d656e7473457363726f7760901b602082015261015790610371565b6001600160a01b031660e05260408051808201909152600c81526b22b837b1b426b0b730b3b2b960a11b602082015261018f90610371565b6001600160a01b03166101205260408051808201909152600e81526d2932bbb0b93239a6b0b730b3b2b960911b60208201526101ca90610371565b6001600160a01b0316610140526040805180820190915260118152704772617068546f6b656e4761746577617960781b602082015261020890610371565b6001600160a01b03166101605260408051808201909152600f81526e23b930b834283937bc3ca0b236b4b760891b602082015261024490610371565b6001600160a01b03166101805260408051808201909152600881526721bab930ba34b7b760c11b602082015261027990610371565b6001600160a01b039081166101a08190526101005160a05160805160c05160e05161012051610140516101605161018051604051988b169a9788169996909716977fef5021414834d86e36470f5c1cecf6544fb2bb723f2ca51a4c86fcd8c5919a43976103239790916001600160a01b03978816815295871660208701529386166040860152918516606085015284166080840152831660a083015290911660c082015260e00190565b60405180910390a45061033981620f4240101590565b819061035b576040516339b762e560e21b815260040161007091815260200190565b506101c081905261036a61041c565b5050610568565b5f5f610100516001600160a01b031663f7641a5e84805190602001206040518263ffffffff1660e01b81526004016103ab91815260200190565b602060405180830381865afa1580156103c6573d5f5f3e3d5ffd5b505050506040513d601f19601f820116820180604052508101906103ea9190610513565b9050826001600160a01b0382166104155760405163218f5add60e11b81526004016100709190610533565b5092915050565b7ff0c57e16840df040f15088dc2f81fe391c3923bec73e23a9662efc9c229c6a00805468010000000000000000900460ff161561046c5760405163f92ee8a960e01b815260040160405180910390fd5b80546001600160401b03908116146104cb5780546001600160401b0319166001600160401b0390811782556040519081527fc7f505b2f371ae2175ee4913f4499e1f2633a7b5936321eed1cdaeb6115181d29060200160405180910390a15b50565b80516001600160a01b03811681146104e4575f5ffd5b919050565b5f5f604083850312156104fa575f5ffd5b610503836104ce565b9150602083015190509250929050565b5f60208284031215610523575f5ffd5b61052c826104ce565b9392505050565b602081525f82518060208401528060208501604085015e5f604082850101526040601f19601f83011684010191505092915050565b60805160a05160c05160e05161010051610120516101405161016051610180516101a0516101c051610f8b6106155f395f81816053015261023101525f50505f50505f50505f50505f50505f50505f50505f50505f81816102800152818161032301528181610467015281816104f7015281816105c3015261065301525f8181610202015281816103d301528181610400015281816104380152818161059401526106dd0152610f8b5ff3fe608060405234801561000f575f5ffd5b506004361061004a575f3560e01c80631d526e501461004e5780638129fc1c1461008857806381cd11a014610092578063ac9650d8146100a5575b5f5ffd5b6100757f000000000000000000000000000000000000000000000000000000000000000081565b6040519081526020015b60405180910390f35b6100906100c5565b005b6100906100a0366004610c02565b6101bc565b6100b86100b3366004610c69565b6107a6565b60405161007f9190610cda565b5f6100ce61088d565b805490915060ff600160401b820416159067ffffffffffffffff165f811580156100f55750825b90505f8267ffffffffffffffff1660011480156101115750303b155b90508115801561011f575080155b1561013d5760405163f92ee8a960e01b815260040160405180910390fd5b845467ffffffffffffffff19166001178555831561016757845460ff60401b1916600160401b1785555b61016f6108b5565b83156101b557845460ff60401b19168555604051600181527fc7f505b2f371ae2175ee4913f4499e1f2633a7b5936321eed1cdaeb6115181d29060200160405180910390a15b5050505050565b6101c982620f4240101590565b82906101f4576040516339b762e560e21b81526004016101eb91815260200190565b60405180910390fd5b506102296001600160a01b037f00000000000000000000000000000000000000000000000000000000000000001633866108bf565b835f610255827f0000000000000000000000000000000000000000000000000000000000000000610979565b90506102618183610d72565b91505f61026e8386610979565b905061027a8184610d72565b92505f807f0000000000000000000000000000000000000000000000000000000000000000604051631584a17960e21b81526001600160a01b038c811660048301528a81166024830152919091169063561285e49060440160a060405180830381865afa1580156102ed573d5f5f3e3d5ffd5b505050506040513d601f19601f820116820180604052508101906103119190610d99565b6020810151909150156103c6576103b77f00000000000000000000000000000000000000000000000000000000000000006001600160a01b0316637573ef4f8c8b8f6040518463ffffffff1660e01b815260040161037193929190610e26565b602060405180830381865afa15801561038c573d5f5f3e3d5ffd5b505050506040513d601f19601f820116820180604052508101906103b09190610e68565b8690610979565b91506103c38286610d72565b94505b6103f96001600160a01b037f000000000000000000000000000000000000000000000000000000000000000016856109d1565b61043088847f00000000000000000000000000000000000000000000000000000000000000005b6001600160a01b03169190610a31565b811561057e577f00000000000000000000000000000000000000000000000000000000000000006001600160a01b031663095ea7b37f00000000000000000000000000000000000000000000000000000000000000006040516001600160e01b031960e084901b1681526001600160a01b039091166004820152602481018590526044016020604051808303815f875af11580156104d0573d5f5f3e3d5ffd5b505050506040513d601f19601f820116820180604052508101906104f49190610e7f565b507f000000000000000000000000000000000000000000000000000000000000000060405163ca94b0e960e01b81526001600160a01b038c811660048301528a8116602483015260448201859052919091169063ca94b0e9906064015f604051808303815f87803b158015610567575f5ffd5b505af1158015610579573d5f5f3e3d5ffd5b505050505b8415610701576001600160a01b0386166106d6577f00000000000000000000000000000000000000000000000000000000000000006001600160a01b031663095ea7b37f00000000000000000000000000000000000000000000000000000000000000006040516001600160e01b031960e084901b1681526001600160a01b039091166004820152602481018890526044016020604051808303815f875af115801561062c573d5f5f3e3d5ffd5b505050506040513d601f19601f820116820180604052508101906106509190610e7f565b507f00000000000000000000000000000000000000000000000000000000000000006040516351518b9160e11b81526001600160a01b038c8116600483015260248201889052919091169063a2a31722906044015f604051808303815f87803b1580156106bb575f5ffd5b505af11580156106cd573d5f5f3e3d5ffd5b50505050610701565b61070186867f0000000000000000000000000000000000000000000000000000000000000000610420565b6001600160a01b038816338c600281111561071e5761071e610e12565b7fb1ac8b16683562f4b1b5ecbe3321151b400058de5cdd25ac44d5bfacb106765f8d8d8989898d8f60405161079197969594939291906001600160a01b039788168152602081019690965260408601949094526060850192909252608084015260a083015290911660c082015260e00190565b60405180910390a45050505050505050505050565b604080515f8152602081019091526060908267ffffffffffffffff8111156107d0576107d0610d85565b60405190808252806020026020018201604052801561080357816020015b60608152602001906001900390816107ee5790505b5091505f5b838110156108845761085f3086868481811061082657610826610e9e565b90506020028101906108389190610eb2565b8560405160200161084b93929190610efc565b604051602081830303815290604052610a6c565b83828151811061087157610871610e9e565b6020908102919091010152600101610808565b50505b92915050565b5f807ff0c57e16840df040f15088dc2f81fe391c3923bec73e23a9662efc9c229c6a00610887565b6108bd610b0c565b565b8015610974576040516323b872dd60e01b81526001600160a01b038381166004830152306024830152604482018390528416906323b872dd906064015b6020604051808303815f875af1158015610918573d5f5f3e3d5ffd5b505050506040513d601f19601f8201168201806040525081019061093c9190610e7f565b6109745760405162461bcd60e51b815260206004820152600960248201526810ba3930b739b332b960b91b60448201526064016101eb565b505050565b5f61098782620f4240101590565b82906109a957604051633dc311df60e01b81526004016101eb91815260200190565b506109c0836109bb84620f4240610d72565b610b31565b6109ca9084610d72565b9392505050565b8015610a2d57604051630852cd8d60e31b8152600481018290526001600160a01b038316906342966c68906024015f604051808303815f87803b158015610a16575f5ffd5b505af1158015610a28573d5f5f3e3d5ffd5b505050505b5050565b80156109745760405163a9059cbb60e01b81526001600160a01b0383811660048301526024820183905284169063a9059cbb906044016108fc565b60605f610a798484610b97565b9050808015610a9a57505f3d1180610a9a57505f846001600160a01b03163b115b15610aaf57610aa7610baa565b915050610887565b8015610ad957604051639996b31560e01b81526001600160a01b03851660048201526024016101eb565b3d15610aec57610ae7610bc3565b610b05565b60405163d6bda27560e01b815260040160405180910390fd5b5092915050565b610b14610bce565b6108bd57604051631afcd79f60e31b815260040160405180910390fd5b5f610b3f83620f4240101590565b80610b525750610b5282620f4240101590565b83839091610b7c5760405163768bf0eb60e11b8152600481019290925260248201526044016101eb565b50620f42409050610b8d8385610f1f565b6109ca9190610f36565b5f5f5f835160208501865af49392505050565b6040513d81523d5f602083013e3d602001810160405290565b6040513d5f823e3d81fd5b5f610bd761088d565b54600160401b900460ff16919050565b80356001600160a01b0381168114610bfd575f5ffd5b919050565b5f5f5f5f5f5f60c08789031215610c17575f5ffd5b863560038110610c25575f5ffd5b9550610c3360208801610be7565b945060408701359350610c4860608801610be7565b925060808701359150610c5d60a08801610be7565b90509295509295509295565b5f5f60208385031215610c7a575f5ffd5b823567ffffffffffffffff811115610c90575f5ffd5b8301601f81018513610ca0575f5ffd5b803567ffffffffffffffff811115610cb6575f5ffd5b8560208260051b8401011115610cca575f5ffd5b6020919091019590945092505050565b5f602082016020835280845180835260408501915060408160051b8601019250602086015f5b82811015610d5257603f19878603018452815180518087528060208301602089015e5f602082890101526020601f19601f83011688010196505050602082019150602084019350600181019050610d00565b50929695505050505050565b634e487b7160e01b5f52601160045260245ffd5b8181038181111561088757610887610d5e565b634e487b7160e01b5f52604160045260245ffd5b5f60a0828403128015610daa575f5ffd5b5060405160a0810167ffffffffffffffff81118282101715610dda57634e487b7160e01b5f52604160045260245ffd5b604090815283518252602080850151908301528381015190820152606080840151908201526080928301519281019290925250919050565b634e487b7160e01b5f52602160045260245ffd5b6001600160a01b038481168252831660208201526060810160038310610e5a57634e487b7160e01b5f52602160045260245ffd5b826040830152949350505050565b5f60208284031215610e78575f5ffd5b5051919050565b5f60208284031215610e8f575f5ffd5b815180151581146109ca575f5ffd5b634e487b7160e01b5f52603260045260245ffd5b5f5f8335601e19843603018112610ec7575f5ffd5b83018035915067ffffffffffffffff821115610ee1575f5ffd5b602001915036819003821315610ef5575f5ffd5b9250929050565b828482375f8382015f815283518060208601835e5f910190815295945050505050565b808202811582820484141761088757610887610d5e565b5f82610f5057634e487b7160e01b5f52601260045260245ffd5b50049056fea2646970667358221220babdc975cdb32cee90e4aa6155b66dd47828ae31e213c748392d9e3abe2f3a2d64736f6c634300081b0033","linkReferences":{}},"methodIdentifiers":{"PROTOCOL_PAYMENT_CUT()":"1d526e50","collect(uint8,address,uint256,address,uint256,address)":"81cd11a0","initialize()":"8129fc1c","multicall(bytes[])":"ac9650d8"},"id":15}