{"abi":[{"type":"constructor","inputs":[],"stateMutability":"nonpayable"},{"type":"function","name":"addMinter","inputs":[{"name":"account","type":"address","internalType":"address"}],"outputs":[],"stateMutability":"nonpayable"},{"type":"function","name":"allowance","inputs":[{"name":"owner","type":"address","internalType":"address"},{"name":"spender","type":"address","internalType":"address"}],"outputs":[{"name":"","type":"uint256","internalType":"uint256"}],"stateMutability":"view"},{"type":"function","name":"approve","inputs":[{"name":"spender","type":"address","internalType":"address"},{"name":"value","type":"uint256","internalType":"uint256"}],"outputs":[{"name":"","type":"bool","internalType":"bool"}],"stateMutability":"nonpayable"},{"type":"function","name":"balanceOf","inputs":[{"name":"account","type":"address","internalType":"address"}],"outputs":[{"name":"","type":"uint256","internalType":"uint256"}],"stateMutability":"view"},{"type":"function","name":"burn","inputs":[{"name":"tokens","type":"uint256","internalType":"uint256"}],"outputs":[],"stateMutability":"nonpayable"},{"type":"function","name":"burnFrom","inputs":[{"name":"from","type":"address","internalType":"address"},{"name":"tokens","type":"uint256","internalType":"uint256"}],"outputs":[],"stateMutability":"nonpayable"},{"type":"function","name":"decimals","inputs":[],"outputs":[{"name":"","type":"uint8","internalType":"uint8"}],"stateMutability":"view"},{"type":"function","name":"decreaseAllowance","inputs":[{"name":"spender","type":"address","internalType":"address"},{"name":"subtractedValue","type":"uint256","internalType":"uint256"}],"outputs":[{"name":"","type":"bool","internalType":"bool"}],"stateMutability":"nonpayable"},{"type":"function","name":"increaseAllowance","inputs":[{"name":"spender","type":"address","internalType":"address"},{"name":"addedValue","type":"uint256","internalType":"uint256"}],"outputs":[{"name":"","type":"bool","internalType":"bool"}],"stateMutability":"nonpayable"},{"type":"function","name":"isMinter","inputs":[{"name":"account","type":"address","internalType":"address"}],"outputs":[{"name":"","type":"bool","internalType":"bool"}],"stateMutability":"view"},{"type":"function","name":"mint","inputs":[{"name":"to","type":"address","internalType":"address"},{"name":"tokens","type":"uint256","internalType":"uint256"}],"outputs":[],"stateMutability":"nonpayable"},{"type":"function","name":"name","inputs":[],"outputs":[{"name":"","type":"string","internalType":"string"}],"stateMutability":"view"},{"type":"function","name":"permit","inputs":[{"name":"owner","type":"address","internalType":"address"},{"name":"spender","type":"address","internalType":"address"},{"name":"value","type":"uint256","internalType":"uint256"},{"name":"deadline","type":"uint256","internalType":"uint256"},{"name":"v","type":"uint8","internalType":"uint8"},{"name":"r","type":"bytes32","internalType":"bytes32"},{"name":"s","type":"bytes32","internalType":"bytes32"}],"outputs":[],"stateMutability":"nonpayable"},{"type":"function","name":"removeMinter","inputs":[{"name":"account","type":"address","internalType":"address"}],"outputs":[],"stateMutability":"nonpayable"},{"type":"function","name":"renounceMinter","inputs":[],"outputs":[],"stateMutability":"nonpayable"},{"type":"function","name":"symbol","inputs":[],"outputs":[{"name":"","type":"string","internalType":"string"}],"stateMutability":"view"},{"type":"function","name":"totalSupply","inputs":[],"outputs":[{"name":"","type":"uint256","internalType":"uint256"}],"stateMutability":"view"},{"type":"function","name":"transfer","inputs":[{"name":"to","type":"address","internalType":"address"},{"name":"value","type":"uint256","internalType":"uint256"}],"outputs":[{"name":"","type":"bool","internalType":"bool"}],"stateMutability":"nonpayable"},{"type":"function","name":"transferFrom","inputs":[{"name":"from","type":"address","internalType":"address"},{"name":"to","type":"address","internalType":"address"},{"name":"value","type":"uint256","internalType":"uint256"}],"outputs":[{"name":"","type":"bool","internalType":"bool"}],"stateMutability":"nonpayable"},{"type":"event","name":"Approval","inputs":[{"name":"owner","type":"address","indexed":true,"internalType":"address"},{"name":"spender","type":"address","indexed":true,"internalType":"address"},{"name":"value","type":"uint256","indexed":false,"internalType":"uint256"}],"anonymous":false},{"type":"event","name":"Transfer","inputs":[{"name":"from","type":"address","indexed":true,"internalType":"address"},{"name":"to","type":"address","indexed":true,"internalType":"address"},{"name":"value","type":"uint256","indexed":false,"internalType":"uint256"}],"anonymous":false},{"type":"error","name":"ERC20InsufficientAllowance","inputs":[{"name":"spender","type":"address","internalType":"address"},{"name":"allowance","type":"uint256","internalType":"uint256"},{"name":"needed","type":"uint256","internalType":"uint256"}]},{"type":"error","name":"ERC20InsufficientBalance","inputs":[{"name":"sender","type":"address","internalType":"address"},{"name":"balance","type":"uint256","internalType":"uint256"},{"name":"needed","type":"uint256","internalType":"uint256"}]},{"type":"error","name":"ERC20InvalidApprover","inputs":[{"name":"approver","type":"address","internalType":"address"}]},{"type":"error","name":"ERC20InvalidReceiver","inputs":[{"name":"receiver","type":"address","internalType":"address"}]},{"type":"error","name":"ERC20InvalidSender","inputs":[{"name":"sender","type":"address","internalType":"address"}]},{"type":"error","name":"ERC20InvalidSpender","inputs":[{"name":"spender","type":"address","internalType":"address"}]}],"bytecode":{"object":"0x608060405234801561000f575f5ffd5b506040518060400160405280600b81526020016a23b930b834102a37b5b2b760a91b8152506040518060400160405280600381526020016211d49560ea1b815250816003908161005f919061010c565b50600461006c828261010c565b5050506101c6565b634e487b7160e01b5f52604160045260245ffd5b600181811c9082168061009c57607f821691505b6020821081036100ba57634e487b7160e01b5f52602260045260245ffd5b50919050565b601f82111561010757805f5260205f20601f840160051c810160208510156100e55750805b601f840160051c820191505b81811015610104575f81556001016100f1565b50505b505050565b81516001600160401b0381111561012557610125610074565b610139816101338454610088565b846100c0565b6020601f82116001811461016b575f83156101545750848201515b5f19600385901b1c1916600184901b178455610104565b5f84815260208120601f198516915b8281101561019a578785015182556020948501946001909201910161017a565b50848210156101b757868401515f19600387901b60f8161c191681555b50505050600190811b01905550565b610909806101d35f395ff3fe608060405234801561000f575f5ffd5b506004361061011c575f3560e01c806370a08231116100a9578063a457c2d71161006e578063a457c2d7146101a8578063a9059cbb14610226578063aa271e1a14610239578063d505accf1461024c578063dd62ed3e14610263575f5ffd5b806370a08231146101e357806379cc67901461020b57806395d89b411461021e578063983b2d56146101865780639865027514610197575f5ffd5b80633092afd5116100ef5780633092afd514610186578063313ce5671461019957806339509351146101a857806340c10f19146101bd57806342966c68146101d0575f5ffd5b806306fdde0314610120578063095ea7b31461013e57806318160ddd1461016157806323b872dd14610173575b5f5ffd5b61012861029b565b60405161013591906106f5565b60405180910390f35b61015161014c366004610745565b61032b565b6040519015158152602001610135565b6002545b604051908152602001610135565b61015161018136600461076d565b610344565b6101976101943660046107a7565b50565b005b60405160128152602001610135565b6101516101b6366004610745565b5f92915050565b6101976101cb366004610745565b610367565b6101976101de3660046107c7565b610375565b6101656101f13660046107a7565b6001600160a01b03165f9081526020819052604090205490565b610197610219366004610745565b61037f565b610128610389565b610151610234366004610745565b610398565b6101516102473660046107a7565b505f90565b61019761025a3660046107de565b50505050505050565b61016561027136600461084b565b6001600160a01b039182165f90815260016020908152604080832093909416825291909152205490565b6060600380546102aa9061087c565b80601f01602080910402602001604051908101604052809291908181526020018280546102d69061087c565b80156103215780601f106102f857610100808354040283529160200191610321565b820191905f5260205f20905b81548152906001019060200180831161030457829003601f168201915b5050505050905090565b5f336103388185856103a5565b60019150505b92915050565b5f336103518582856103b7565b61035c858585610438565b506001949350505050565b6103718282610495565b5050565b61019433826104c9565b61037182826104c9565b6060600480546102aa9061087c565b5f33610338818585610438565b6103b283838360016104fd565b505050565b6001600160a01b038381165f908152600160209081526040808320938616835292905220545f19811015610432578181101561042457604051637dc7a0d960e11b81526001600160a01b038416600482015260248101829052604481018390526064015b60405180910390fd5b61043284848484035f6104fd565b50505050565b6001600160a01b03831661046157604051634b637e8f60e11b81525f600482015260240161041b565b6001600160a01b03821661048a5760405163ec442f0560e01b81525f600482015260240161041b565b6103b28383836105cf565b6001600160a01b0382166104be5760405163ec442f0560e01b81525f600482015260240161041b565b6103715f83836105cf565b6001600160a01b0382166104f257604051634b637e8f60e11b81525f600482015260240161041b565b610371825f836105cf565b6001600160a01b0384166105265760405163e602df0560e01b81525f600482015260240161041b565b6001600160a01b03831661054f57604051634a1406b160e11b81525f600482015260240161041b565b6001600160a01b038085165f908152600160209081526040808320938716835292905220829055801561043257826001600160a01b0316846001600160a01b03167f8c5be1e5ebec7d5bd14f71427d1e84f3dd0314c0f7b2291e5b200ac8c7c3b925846040516105c191815260200190565b60405180910390a350505050565b6001600160a01b0383166105f9578060025f8282546105ee91906108b4565b909155506106699050565b6001600160a01b0383165f908152602081905260409020548181101561064b5760405163391434e360e21b81526001600160a01b0385166004820152602481018290526044810183905260640161041b565b6001600160a01b0384165f9081526020819052604090209082900390555b6001600160a01b038216610685576002805482900390556106a3565b6001600160a01b0382165f9081526020819052604090208054820190555b816001600160a01b0316836001600160a01b03167fddf252ad1be2c89b69c2b068fc378daa952ba7f163c4a11628f55a4df523b3ef836040516106e891815260200190565b60405180910390a3505050565b602081525f82518060208401528060208501604085015e5f604082850101526040601f19601f83011684010191505092915050565b80356001600160a01b0381168114610740575f5ffd5b919050565b5f5f60408385031215610756575f5ffd5b61075f8361072a565b946020939093013593505050565b5f5f5f6060848603121561077f575f5ffd5b6107888461072a565b92506107966020850161072a565b929592945050506040919091013590565b5f602082840312156107b7575f5ffd5b6107c08261072a565b9392505050565b5f602082840312156107d7575f5ffd5b5035919050565b5f5f5f5f5f5f5f60e0888a0312156107f4575f5ffd5b6107fd8861072a565b965061080b6020890161072a565b95506040880135945060608801359350608088013560ff8116811461082e575f5ffd5b9699959850939692959460a0840135945060c09093013592915050565b5f5f6040838503121561085c575f5ffd5b6108658361072a565b91506108736020840161072a565b90509250929050565b600181811c9082168061089057607f821691505b6020821081036108ae57634e487b7160e01b5f52602260045260245ffd5b50919050565b8082018082111561033e57634e487b7160e01b5f52601160045260245ffdfea264697066735822122026404444dda03a3fe4ad929aa82757302857ea4a41cb7ce3a41761e24fdad32664736f6c634300081b0033","linkReferences":{}},"methodIdentifiers":{"addMinter(address)":"983b2d56","allowance(address,address)":"dd62ed3e","approve(address,uint256)":"095ea7b3","balanceOf(address)":"70a08231","burn(uint256)":"42966c68","burnFrom(address,uint256)":"79cc6790","decimals()":"313ce567","decreaseAllowance(address,uint256)":"a457c2d7","increaseAllowance(address,uint256)":"39509351","isMinter(address)":"aa271e1a","mint(address,uint256)":"40c10f19","name()":"06fdde03","permit(address,address,uint256,uint256,uint8,bytes32,bytes32)":"d505accf","removeMinter(address)":"3092afd5","renounceMinter()":"98650275","symbol()":"95d89b41","totalSupply()":"18160ddd","transfer(address,uint256)":"a9059cbb","transferFrom(address,address,uint256)":"23b872dd"},"id":14}